{
  "contractName": "Auction",
  "abi": [
    {
      "inputs": [
        {
          "internalType": "address",
          "name": "_bulletProofverifier",
          "type": "address"
        },
        {
          "internalType": "address",
          "name": "_elgamalProofVerifier",
          "type": "address"
        },
        {
          "internalType": "uint256[4]",
          "name": "_timeIntervals",
          "type": "uint256[4]"
        },
        {
          "internalType": "uint256[2]",
          "name": "_operatorPublicKey",
          "type": "uint256[2]"
        }
      ],
      "payable": true,
      "stateMutability": "payable",
      "type": "constructor"
    },
    {
      "anonymous": false,
      "inputs": [
        {
          "indexed": true,
          "internalType": "address",
          "name": "trader",
          "type": "address"
        },
        {
          "indexed": true,
          "internalType": "bool",
          "name": "isBuyOrder",
          "type": "bool"
        },
        {
          "indexed": false,
          "internalType": "uint256[2]",
          "name": "price",
          "type": "uint256[2]"
        },
        {
          "indexed": false,
          "internalType": "uint256[29]",
          "name": "priceProof",
          "type": "uint256[29]"
        },
        {
          "indexed": false,
          "internalType": "uint256[2]",
          "name": "quantity",
          "type": "uint256[2]"
        },
        {
          "indexed": false,
          "internalType": "uint256[29]",
          "name": "quantityProof",
          "type": "uint256[29]"
        }
      ],
      "name": "orderCreated",
      "type": "event"
    },
    {
      "anonymous": false,
      "inputs": [
        {
          "indexed": true,
          "internalType": "address",
          "name": "trader",
          "type": "address"
        },
        {
          "indexed": true,
          "internalType": "bool",
          "name": "isBuyOrder",
          "type": "bool"
        },
        {
          "indexed": false,
          "internalType": "uint256[2]",
          "name": "priceC1",
          "type": "uint256[2]"
        },
        {
          "indexed": false,
          "internalType": "uint256[2]",
          "name": "priceC2",
          "type": "uint256[2]"
        },
        {
          "indexed": false,
          "internalType": "uint256[8]",
          "name": "priceProof",
          "type": "uint256[8]"
        },
        {
          "indexed": false,
          "internalType": "uint256[2]",
          "name": "quantityC1",
          "type": "uint256[2]"
        },
        {
          "indexed": false,
          "internalType": "uint256[2]",
          "name": "quantityC2",
          "type": "uint256[2]"
        },
        {
          "indexed": false,
          "internalType": "uint256[8]",
          "name": "quantityProof",
          "type": "uint256[8]"
        }
      ],
      "name": "orderRevealed",
      "type": "event"
    },
    {
      "constant": true,
      "inputs": [
        {
          "internalType": "uint256",
          "name": "",
          "type": "uint256"
        }
      ],
      "name": "BuyProofs",
      "outputs": [
        {
          "internalType": "bytes32",
          "name": "",
          "type": "bytes32"
        }
      ],
      "payable": false,
      "stateMutability": "view",
      "type": "function"
    },
    {
      "constant": true,
      "inputs": [
        {
          "internalType": "uint256",
          "name": "",
          "type": "uint256"
        }
      ],
      "name": "Buyers",
      "outputs": [
        {
          "internalType": "address",
          "name": "",
          "type": "address"
        }
      ],
      "payable": false,
      "stateMutability": "view",
      "type": "function"
    },
    {
      "constant": true,
      "inputs": [
        {
          "internalType": "uint256",
          "name": "",
          "type": "uint256"
        }
      ],
      "name": "BuyersSortedPositions",
      "outputs": [
        {
          "internalType": "uint256",
          "name": "",
          "type": "uint256"
        }
      ],
      "payable": false,
      "stateMutability": "view",
      "type": "function"
    },
    {
      "constant": true,
      "inputs": [],
      "name": "DEPOSIT",
      "outputs": [
        {
          "internalType": "uint256",
          "name": "",
          "type": "uint256"
        }
      ],
      "payable": false,
      "stateMutability": "view",
      "type": "function"
    },
    {
      "constant": true,
      "inputs": [],
      "name": "IntervalsEnd",
      "outputs": [
        {
          "internalType": "uint256",
          "name": "Submit",
          "type": "uint256"
        },
        {
          "internalType": "uint256",
          "name": "Reveal",
          "type": "uint256"
        },
        {
          "internalType": "uint256",
          "name": "Clear",
          "type": "uint256"
        },
        {
          "internalType": "uint256",
          "name": "Dispute",
          "type": "uint256"
        }
      ],
      "payable": false,
      "stateMutability": "view",
      "type": "function"
    },
    {
      "constant": true,
      "inputs": [
        {
          "internalType": "uint256",
          "name": "",
          "type": "uint256"
        }
      ],
      "name": "SellProofs",
      "outputs": [
        {
          "internalType": "bytes32",
          "name": "",
          "type": "bytes32"
        }
      ],
      "payable": false,
      "stateMutability": "view",
      "type": "function"
    },
    {
      "constant": true,
      "inputs": [
        {
          "internalType": "uint256",
          "name": "",
          "type": "uint256"
        }
      ],
      "name": "Sellers",
      "outputs": [
        {
          "internalType": "address",
          "name": "",
          "type": "address"
        }
      ],
      "payable": false,
      "stateMutability": "view",
      "type": "function"
    },
    {
      "constant": true,
      "inputs": [
        {
          "internalType": "uint256",
          "name": "",
          "type": "uint256"
        }
      ],
      "name": "SellersSortedPositions",
      "outputs": [
        {
          "internalType": "uint256",
          "name": "",
          "type": "uint256"
        }
      ],
      "payable": false,
      "stateMutability": "view",
      "type": "function"
    },
    {
      "constant": true,
      "inputs": [],
      "name": "bulletProofVerifier",
      "outputs": [
        {
          "internalType": "contract RangeProofVerifier",
          "name": "",
          "type": "address"
        }
      ],
      "payable": false,
      "stateMutability": "view",
      "type": "function"
    },
    {
      "constant": true,
      "inputs": [],
      "name": "elgamalProofVerifier",
      "outputs": [
        {
          "internalType": "contract ElGamalProofVerifier",
          "name": "",
          "type": "address"
        }
      ],
      "payable": false,
      "stateMutability": "view",
      "type": "function"
    },
    {
      "constant": true,
      "inputs": [],
      "name": "marketPrice",
      "outputs": [
        {
          "internalType": "uint256",
          "name": "",
          "type": "uint256"
        }
      ],
      "payable": false,
      "stateMutability": "view",
      "type": "function"
    },
    {
      "constant": true,
      "inputs": [],
      "name": "operator",
      "outputs": [
        {
          "internalType": "address",
          "name": "",
          "type": "address"
        }
      ],
      "payable": false,
      "stateMutability": "view",
      "type": "function"
    },
    {
      "constant": false,
      "inputs": [
        {
          "internalType": "bool",
          "name": "direction",
          "type": "bool"
        },
        {
          "internalType": "uint256[2]",
          "name": "price",
          "type": "uint256[2]"
        },
        {
          "internalType": "uint256[29]",
          "name": "priceProof",
          "type": "uint256[29]"
        },
        {
          "internalType": "uint256[2]",
          "name": "quantity",
          "type": "uint256[2]"
        },
        {
          "internalType": "uint256[29]",
          "name": "quantityProof",
          "type": "uint256[29]"
        }
      ],
      "name": "SubmitOrder",
      "outputs": [],
      "payable": true,
      "stateMutability": "payable",
      "type": "function"
    },
    {
      "constant": false,
      "inputs": [
        {
          "internalType": "address",
          "name": "owner",
          "type": "address"
        },
        {
          "internalType": "uint256[2]",
          "name": "commitment",
          "type": "uint256[2]"
        },
        {
          "internalType": "uint256[29]",
          "name": "proof",
          "type": "uint256[29]"
        }
      ],
      "name": "DisputeSubmitOrder",
      "outputs": [],
      "payable": false,
      "stateMutability": "nonpayable",
      "type": "function"
    },
    {
      "constant": false,
      "inputs": [
        {
          "internalType": "bool",
          "name": "isBuyOrder",
          "type": "bool"
        },
        {
          "internalType": "uint256[2]",
          "name": "priceC1",
          "type": "uint256[2]"
        },
        {
          "internalType": "uint256[2]",
          "name": "priceC2",
          "type": "uint256[2]"
        },
        {
          "internalType": "uint256[8]",
          "name": "priceProof",
          "type": "uint256[8]"
        },
        {
          "internalType": "uint256[2]",
          "name": "quantityC1",
          "type": "uint256[2]"
        },
        {
          "internalType": "uint256[2]",
          "name": "quantityC2",
          "type": "uint256[2]"
        },
        {
          "internalType": "uint256[8]",
          "name": "quantityProof",
          "type": "uint256[8]"
        }
      ],
      "name": "RevealOrder",
      "outputs": [],
      "payable": false,
      "stateMutability": "nonpayable",
      "type": "function"
    },
    {
      "constant": false,
      "inputs": [
        {
          "internalType": "address",
          "name": "owner",
          "type": "address"
        },
        {
          "internalType": "uint256[2]",
          "name": "commitment",
          "type": "uint256[2]"
        },
        {
          "internalType": "uint256[2]",
          "name": "c1",
          "type": "uint256[2]"
        },
        {
          "internalType": "uint256[2]",
          "name": "c2",
          "type": "uint256[2]"
        },
        {
          "internalType": "uint256[8]",
          "name": "proof",
          "type": "uint256[8]"
        }
      ],
      "name": "DisputeRevealOrder",
      "outputs": [],
      "payable": false,
      "stateMutability": "nonpayable",
      "type": "function"
    },
    {
      "constant": false,
      "inputs": [
        {
          "internalType": "address[]",
          "name": "owners",
          "type": "address[]"
        }
      ],
      "name": "DisuputeUnrevealedOrder",
      "outputs": [],
      "payable": false,
      "stateMutability": "nonpayable",
      "type": "function"
    },
    {
      "constant": false,
      "inputs": [
        {
          "internalType": "uint256",
          "name": "_marketPrice",
          "type": "uint256"
        },
        {
          "internalType": "uint256[2]",
          "name": "pricePoint",
          "type": "uint256[2]"
        },
        {
          "internalType": "uint256[]",
          "name": "x",
          "type": "uint256[]"
        },
        {
          "internalType": "uint256[]",
          "name": "y",
          "type": "uint256[]"
        },
        {
          "internalType": "uint256[][29]",
          "name": "buyProofs",
          "type": "uint256[][29]"
        },
        {
          "internalType": "uint256[][29]",
          "name": "sellProofs",
          "type": "uint256[][29]"
        }
      ],
      "name": "ClearMarket",
      "outputs": [],
      "payable": false,
      "stateMutability": "nonpayable",
      "type": "function"
    }
  ],
  "bytecode": "0x60806040526040516200342438038062003424833981810160405262000029919081019062000303565b670de0b6b3a7640000341462000076576040517f08c379a00000000000000000000000000000000000000000000000000000000081526004016200006d90620003b2565b60405180910390fd5b83600d60006101000a81548173ffffffffffffffffffffffffffffffffffffffff021916908373ffffffffffffffffffffffffffffffffffffffff16021790555082600e60006101000a81548173ffffffffffffffffffffffffffffffffffffffff021916908373ffffffffffffffffffffffffffffffffffffffff1602179055506040518060800160405280836000600481106200011157fe5b60200201518152602001836001600481106200012957fe5b60200201518152602001836002600481106200014157fe5b60200201518152602001836003600481106200015957fe5b602002015181525060086000820151816000015560208201518160010155604082015181600201556060820151816003015590505033600c60006101000a81548173ffffffffffffffffffffffffffffffffffffffff021916908373ffffffffffffffffffffffffffffffffffffffff16021790555050505050620004cb565b600081519050620001ea8162000497565b92915050565b600082601f8301126200020257600080fd5b600262000219620002138262000402565b620003d4565b915081838560208402820111156200023057600080fd5b60005b83811015620002645781620002498882620002ec565b84526020840193506020830192505060018101905062000233565b5050505092915050565b600082601f8301126200028057600080fd5b600462000297620002918262000425565b620003d4565b91508183856020840282011115620002ae57600080fd5b60005b83811015620002e25781620002c78882620002ec565b845260208401935060208301925050600181019050620002b1565b5050505092915050565b600081519050620002fd81620004b1565b92915050565b60008060008061010085870312156200031b57600080fd5b60006200032b87828801620001d9565b94505060206200033e87828801620001d9565b935050604062000351878288016200026e565b92505060c06200036487828801620001f0565b91505092959194509250565b60006200037f60118362000448565b91507f6e6f742076616c6964206465706f7369740000000000000000000000000000006000830152602082019050919050565b60006020820190508181036000830152620003cd8162000370565b9050919050565b6000604051905081810181811067ffffffffffffffff82111715620003f857600080fd5b8060405250919050565b600067ffffffffffffffff8211156200041a57600080fd5b602082029050919050565b600067ffffffffffffffff8211156200043d57600080fd5b602082029050919050565b600082825260208201905092915050565b600062000466826200046d565b9050919050565b600073ffffffffffffffffffffffffffffffffffffffff82169050919050565b6000819050919050565b620004a28162000459565b8114620004ae57600080fd5b50565b620004bc816200048d565b8114620004c857600080fd5b50565b612f4980620004db6000396000f3fe6080604052600436106101095760003560e01c806375e5a99511610095578063bd8bd66611610064578063bd8bd66614610373578063d7d9c2e01461039c578063d81c8e52146103c5578063f56e4b0c146103f0578063f5b960ca1461042d57610109565b806375e5a9951461028e5780638f5c3089146102bc578063a443df94146102f9578063b29b54a71461033657610109565b806343d89357116100dc57806343d89357146101b957806345a15388146101e4578063570ca7351461020f57806366a4e03a1461023a5780637569f8bb1461026557610109565b806315554eaf1461010e57806323b2b1a61461014b578063278ae819146101745780633b4b2e2b14610190575b600080fd5b34801561011a57600080fd5b5061013560048036036101309190810190612111565b61046a565b6040516101429190612a13565b60405180910390f35b34801561015757600080fd5b50610172600480360361016d919081019061213a565b61048b565b005b61018e60048036036101899190810190611ff5565b6108ec565b005b34801561019c57600080fd5b506101b760048036036101b29190810190611ec3565b610c88565b005b3480156101c557600080fd5b506101ce610ec8565b6040516101db9190612a49565b60405180910390f35b3480156101f057600080fd5b506101f9610eee565b6040516102069190612ba4565b60405180910390f35b34801561021b57600080fd5b50610224610ef4565b60405161023191906128db565b60405180910390f35b34801561024657600080fd5b5061024f610f1a565b60405161025c9190612a2e565b60405180910390f35b34801561027157600080fd5b5061028c6004803603610287919081019061206f565b610f40565b005b34801561029a57600080fd5b506102a3611076565b6040516102b39493929190612bbf565b60405180910390f35b3480156102c857600080fd5b506102e360048036036102de9190810190612111565b611094565b6040516102f09190612ba4565b60405180910390f35b34801561030557600080fd5b50610320600480360361031b9190810190612111565b6110b5565b60405161032d91906128db565b60405180910390f35b34801561034257600080fd5b5061035d60048036036103589190810190612111565b6110f1565b60405161036a9190612a13565b60405180910390f35b34801561037f57600080fd5b5061039a60048036036103959190810190611f8b565b611112565b005b3480156103a857600080fd5b506103c360048036036103be9190810190611f13565b61122c565b005b3480156103d157600080fd5b506103da611502565b6040516103e79190612ba4565b60405180910390f35b3480156103fc57600080fd5b5061041760048036036104129190810190612111565b61150e565b6040516104249190612ba4565b60405180910390f35b34801561043957600080fd5b50610454600480360361044f9190810190612111565b61152f565b60405161046191906128db565b60405180910390f35b6005818154811061047757fe5b906000526020600020016000915090505481565b60086003015460086001015401431180156104aa575060086002015443105b6104e9576040517f08c379a00000000000000000000000000000000000000000000000000000000081526004016104e090612b64565b60405180910390fd5b600c60009054906101000a900473ffffffffffffffffffffffffffffffffffffffff1673ffffffffffffffffffffffffffffffffffffffff163373ffffffffffffffffffffffffffffffffffffffff1614610579576040517f08c379a000000000000000000000000000000000000000000000000000000000815260040161057090612b04565b60405180910390fd5b85600f81905550610588611a3f565b6040518060c00160405280600f546040516020016105a691906128c0565b6040516020818303038152906040528051906020012081526020016000801b81526020016000801b81526020016000801b81526020016000801b81526020016000801b8152509050806000803373ffffffffffffffffffffffffffffffffffffffff1673ffffffffffffffffffffffffffffffffffffffff168152602001908152602001600020600082015181600001556020820151816001015560408201518160020155606082015181600301556080820151816004015560a0820151816005015590505080600160003373ffffffffffffffffffffffffffffffffffffffff1673ffffffffffffffffffffffffffffffffffffffff168152602001908152602001600020600082015181600001556020820151816001015560408201518160020155606082015181600301556080820151816004015560a0820151816005015590505060023390806001815401808255809150509060018203906000526020600020016000909192909190916101000a81548173ffffffffffffffffffffffffffffffffffffffff021916908373ffffffffffffffffffffffffffffffffffffffff1602179055505060033390806001815401808255809150509060018203906000526020600020016000909192909190916101000a81548173ffffffffffffffffffffffffffffffffffffffff021916908373ffffffffffffffffffffffffffffffffffffffff1602179055505084600690805190602001906107cd929190611a87565b5084600790805190602001906107e4929190611a87565b5060008090505b601d8110156108635760048482601d811061080257fe5b602002015160405160200161081791906128a9565b60405160208183030381529060405280519060200120908060018154018082558091505090600182039060005260206000200160009091929091909150555080806001019150506107eb565b5060008090505b601d8110156108e25760058382601d811061088157fe5b602002015160405160200161089691906128a9565b604051602081830303815290604052805190602001209080600181540180825580915050906001820390600052602060002001600090919290919091505550808060010191505061086a565b5050505050505050565b6008600001544310610933576040517f08c379a000000000000000000000000000000000000000000000000000000000815260040161092a90612ae4565b60405180910390fd5b670de0b6b3a7640000341461097d576040517f08c379a000000000000000000000000000000000000000000000000000000000815260040161097490612a64565b60405180910390fd5b8415153373ffffffffffffffffffffffffffffffffffffffff167fd18fd0b9ab94798471eaa96e34ab1d1347929dbc77bcd4ec384c3b42fd549194868686866040516109cc9493929190612920565b60405180910390a36109dc611a3f565b6040518060c00160405280866040516020016109f89190612823565b6040516020818303038152906040528051906020012081526020018686604051602001610a2692919061283e565b60405160208183030381529060405280519060200120815260200184604051602001610a529190612823565b60405160208183030381529060405280519060200120815260200183604051602001610a7e9190612807565b6040516020818303038152906040528051906020012081526020016000801b81526020016000801b81525090508515610b9a57806000803373ffffffffffffffffffffffffffffffffffffffff1673ffffffffffffffffffffffffffffffffffffffff168152602001908152602001600020600082015181600001556020820151816001015560408201518160020155606082015181600301556080820151816004015560a0820151816005015590505060023390806001815401808255809150509060018203906000526020600020016000909192909190916101000a81548173ffffffffffffffffffffffffffffffffffffffff021916908373ffffffffffffffffffffffffffffffffffffffff16021790555050610c80565b80600160003373ffffffffffffffffffffffffffffffffffffffff1673ffffffffffffffffffffffffffffffffffffffff168152602001908152602001600020600082015181600001556020820151816001015560408201518160020155606082015181600301556080820151816004015560a0820151816005015590505060033390806001815401808255809150509060018203906000526020600020016000909192909190916101000a81548173ffffffffffffffffffffffffffffffffffffffff021916908373ffffffffffffffffffffffffffffffffffffffff160217905550505b505050505050565b60086000015443118015610ca757506008600301546008600001540143105b610ce6576040517f08c379a0000000000000000000000000000000000000000000000000000000008152600401610cdd90612ac4565b60405180910390fd5b60008282604051602001610cfb92919061283e565b6040516020818303038152906040528051906020012090506000610d1e8561156b565b90508060010154821480610d355750806003015482145b610d74576040517f08c379a0000000000000000000000000000000000000000000000000000000008152600401610d6b90612b84565b60405180910390fd5b60001515600d60009054906101000a900473ffffffffffffffffffffffffffffffffffffffff1673ffffffffffffffffffffffffffffffffffffffff1663566af38c86866040518363ffffffff1660e01b8152600401610dd59291906128f6565b602060405180830381600087803b158015610def57600080fd5b505af1158015610e03573d6000803e3d6000fd5b505050506040513d601f19601f82011682018060405250610e279190810190611fcc565b151514610e69576040517f08c379a0000000000000000000000000000000000000000000000000000000008152600401610e6090612aa4565b60405180910390fd5b610e7285611608565b3373ffffffffffffffffffffffffffffffffffffffff166108fc670de0b6b3a76400009081150290604051600060405180830381858888f19350505050158015610ec0573d6000803e3d6000fd5b505050505050565b600d60009054906101000a900473ffffffffffffffffffffffffffffffffffffffff1681565b600f5481565b600c60009054906101000a900473ffffffffffffffffffffffffffffffffffffffff1681565b600e60009054906101000a900473ffffffffffffffffffffffffffffffffffffffff1681565b6008600301546008600001540143118015610f5f575060086001015443105b610f9e576040517f08c379a0000000000000000000000000000000000000000000000000000000008152600401610f9590612b44565b60405180910390fd5b8615153373ffffffffffffffffffffffffffffffffffffffff167f309e920504d038b953bb2d4bdaa88e3de102a541885d4b39aa11b45c67a5e6d5888888888888604051610ff1969594939291906129ae565b60405180910390a360006110043361156b565b905086868660405160200161101b9392919061286b565b60405160208183030381529060405280519060200120816004018190555083838360405160200161104e9392919061286b565b6040516020818303038152906040528051906020012081600501819055505050505050505050565b60088060000154908060010154908060020154908060030154905084565b600681815481106110a157fe5b906000526020600020016000915090505481565b600281815481106110c257fe5b906000526020600020016000915054906101000a900473ffffffffffffffffffffffffffffffffffffffff1681565b600481815481106110fe57fe5b906000526020600020016000915090505481565b6008600101544311801561113157506008600301546008600101540143105b611170576040517f08c379a000000000000000000000000000000000000000000000000000000000815260040161116790612a84565b60405180910390fd5b60008090505b815181101561122857600061119d83838151811061119057fe5b602002602001015161156b565b90506000801b8160040154141561121a576111ca8383815181106111bd57fe5b6020026020010151611608565b3373ffffffffffffffffffffffffffffffffffffffff166108fc670de0b6b3a76400009081150290604051600060405180830381858888f19350505050158015611218573d6000803e3d6000fd5b505b508080600101915050611176565b5050565b6008600101544311801561124b57506008600301546008600101540143105b61128a576040517f08c379a000000000000000000000000000000000000000000000000000000000815260040161128190612a84565b60405180910390fd5b60006112958661156b565b9050846040516020016112a89190612823565b6040516020818303038152906040528051906020012081600001541480156112fd57508383836040516020016112e09392919061286b565b604051602081830303815290604052805190602001208160040154145b8061136a5750846040516020016113149190612823565b604051602081830303815290604052805190602001208160020154148015611369575083838360405160200161134c9392919061286b565b604051602081830303815290604052805190602001208160050154145b5b6113a9576040517f08c379a00000000000000000000000000000000000000000000000000000000081526004016113a090612b24565b60405180910390fd5b60001515600e60009054906101000a900473ffffffffffffffffffffffffffffffffffffffff1673ffffffffffffffffffffffffffffffffffffffff166364252eb7878787876040518563ffffffff1660e01b815260040161140e9493929190612968565b602060405180830381600087803b15801561142857600080fd5b505af115801561143c573d6000803e3d6000fd5b505050506040513d601f19601f820116820180604052506114609190810190611fcc565b1515146114a2576040517f08c379a000000000000000000000000000000000000000000000000000000000815260040161149990612aa4565b60405180910390fd5b6114ab86611608565b3373ffffffffffffffffffffffffffffffffffffffff166108fc670de0b6b3a76400009081150290604051600060405180830381858888f193505050501580156114f9573d6000803e3d6000fd5b50505050505050565b670de0b6b3a764000081565b6007818154811061151b57fe5b906000526020600020016000915090505481565b6003818154811061153c57fe5b906000526020600020016000915054906101000a900473ffffffffffffffffffffffffffffffffffffffff1681565b6000806000808473ffffffffffffffffffffffffffffffffffffffff1673ffffffffffffffffffffffffffffffffffffffff16815260200190815260200160002090506000801b816000015414156115ff57600160008473ffffffffffffffffffffffffffffffffffffffff1673ffffffffffffffffffffffffffffffffffffffff16815260200190815260200160002090505b80915050919050565b6000801b6000808373ffffffffffffffffffffffffffffffffffffffff1673ffffffffffffffffffffffffffffffffffffffff1681526020019081526020016000206000015414611821576000808273ffffffffffffffffffffffffffffffffffffffff1673ffffffffffffffffffffffffffffffffffffffff16815260200190815260200160002060008082016000905560018201600090556002820160009055600382016000905560048201600090556005820160009055505060008090505b60028054905081101561181f578173ffffffffffffffffffffffffffffffffffffffff16600282815481106116fb57fe5b9060005260206000200160009054906101000a900473ffffffffffffffffffffffffffffffffffffffff1673ffffffffffffffffffffffffffffffffffffffff1614156118125760008190505b6001600280549050038110156117f5576002600182018154811061176857fe5b9060005260206000200160009054906101000a900473ffffffffffffffffffffffffffffffffffffffff16600282815481106117a057fe5b9060005260206000200160006101000a81548173ffffffffffffffffffffffffffffffffffffffff021916908373ffffffffffffffffffffffffffffffffffffffff1602179055508080600101915050611748565b5060016002805490500360028161180c9190611ad4565b5061181f565b80806001019150506116ca565b505b6000801b600160008373ffffffffffffffffffffffffffffffffffffffff1673ffffffffffffffffffffffffffffffffffffffff1681526020019081526020016000206000015414611a3c57600160008273ffffffffffffffffffffffffffffffffffffffff1673ffffffffffffffffffffffffffffffffffffffff16815260200190815260200160002060008082016000905560018201600090556002820160009055600382016000905560048201600090556005820160009055505060008090505b600380549050811015611a3a578173ffffffffffffffffffffffffffffffffffffffff166003828154811061191657fe5b9060005260206000200160009054906101000a900473ffffffffffffffffffffffffffffffffffffffff1673ffffffffffffffffffffffffffffffffffffffff161415611a2d5760008190505b600160038054905003811015611a10576003600182018154811061198357fe5b9060005260206000200160009054906101000a900473ffffffffffffffffffffffffffffffffffffffff16600382815481106119bb57fe5b9060005260206000200160006101000a81548173ffffffffffffffffffffffffffffffffffffffff021916908373ffffffffffffffffffffffffffffffffffffffff1602179055508080600101915050611963565b50600160038054905003600381611a279190611ad4565b50611a3a565b80806001019150506118e5565b505b50565b6040518060c001604052806000801916815260200160008019168152602001600080191681526020016000801916815260200160008019168152602001600080191681525090565b828054828255906000526020600020908101928215611ac3579160200282015b82811115611ac2578251825591602001919060010190611aa7565b5b509050611ad09190611b00565b5090565b815481835581811115611afb57818360005260206000209182019101611afa9190611b00565b5b505050565b611b2291905b80821115611b1e576000816000905550600101611b06565b5090565b90565b600081359050611b3481612ec1565b92915050565b600082601f830112611b4b57600080fd5b8135611b5e611b5982612c31565b612c04565b91508181835260208401935060208101905083856020840282011115611b8357600080fd5b60005b83811015611bb35781611b998882611b25565b845260208401935060208301925050600181019050611b86565b5050505092915050565b600082601f830112611bce57600080fd5b601d611be1611bdc82612c59565b612c04565b9150818360005b83811015611c185781358601611bfe8882611d7e565b845260208401935060208301925050600181019050611be8565b5050505092915050565b600082601f830112611c3357600080fd5b601d611c46611c4182612c7b565b612c04565b91508183856020840282011115611c5c57600080fd5b60005b83811015611c8c5781611c728882611eae565b845260208401935060208301925050600181019050611c5f565b5050505092915050565b600082601f830112611ca757600080fd5b6002611cba611cb582612c9d565b612c04565b91508183856020840282011115611cd057600080fd5b60005b83811015611d005781611ce68882611eae565b845260208401935060208301925050600181019050611cd3565b5050505092915050565b600082601f830112611d1b57600080fd5b6008611d2e611d2982612cbf565b612c04565b91508183856020840282011115611d4457600080fd5b60005b83811015611d745781611d5a8882611eae565b845260208401935060208301925050600181019050611d47565b5050505092915050565b600082601f830112611d8f57600080fd5b8135611da2611d9d82612ce1565b612c04565b91508181835260208401935060208101905083856020840282011115611dc757600080fd5b60005b83811015611df75781611ddd8882611eae565b845260208401935060208301925050600181019050611dca565b5050505092915050565b600082601f830112611e1257600080fd5b8135611e25611e2082612d09565b612c04565b91508181835260208401935060208101905083856020840282011115611e4a57600080fd5b60005b83811015611e7a5781611e608882611eae565b845260208401935060208301925050600181019050611e4d565b5050505092915050565b600081359050611e9381612ed8565b92915050565b600081519050611ea881612ed8565b92915050565b600081359050611ebd81612eef565b92915050565b60008060006104008486031215611ed957600080fd5b6000611ee786828701611b25565b9350506020611ef886828701611c96565b9250506060611f0986828701611c22565b9150509250925092565b60008060008060006101e08688031215611f2c57600080fd5b6000611f3a88828901611b25565b9550506020611f4b88828901611c96565b9450506060611f5c88828901611c96565b93505060a0611f6d88828901611c96565b92505060e0611f7e88828901611d0a565b9150509295509295909350565b600060208284031215611f9d57600080fd5b600082013567ffffffffffffffff811115611fb757600080fd5b611fc384828501611b3a565b91505092915050565b600060208284031215611fde57600080fd5b6000611fec84828501611e99565b91505092915050565b60008060008060006107e0868803121561200e57600080fd5b600061201c88828901611e84565b955050602061202d88828901611c96565b945050606061203e88828901611c22565b93505061040061205088828901611c96565b92505061044061206288828901611c22565b9150509295509295909350565b6000806000806000806000610320888a03121561208b57600080fd5b60006120998a828b01611e84565b97505060206120aa8a828b01611c96565b96505060606120bb8a828b01611c96565b95505060a06120cc8a828b01611d0a565b9450506101a06120de8a828b01611c96565b9350506101e06120f08a828b01611c96565b9250506102206121028a828b01611d0a565b91505092959891949750929550565b60006020828403121561212357600080fd5b600061213184828501611eae565b91505092915050565b60008060008060008060e0878903121561215357600080fd5b600061216189828a01611eae565b965050602061217289828a01611c96565b955050606087013567ffffffffffffffff81111561218f57600080fd5b61219b89828a01611e01565b945050608087013567ffffffffffffffff8111156121b857600080fd5b6121c489828a01611e01565b93505060a087013567ffffffffffffffff8111156121e157600080fd5b6121ed89828a01611bbd565b92505060c087013567ffffffffffffffff81111561220a57600080fd5b61221689828a01611bbd565b9150509295509295509295565b600061222f83836127c3565b60208301905092915050565b600061224783836127e1565b60208301905092915050565b61225c81612e1d565b82525050565b61226b81612d5f565b6122758184612dbf565b925061228082612d31565b8060005b838110156122b15781516122988782612223565b96506122a383612d8b565b925050600181019050612284565b505050505050565b6122c281612d5f565b6122cc8184612dca565b92506122d782612d31565b8060005b838110156123085781516122ef878261223b565b96506122fa83612d8b565b9250506001810190506122db565b505050505050565b61231981612d6a565b6123238184612dd5565b925061232e82612d3b565b8060005b8381101561235f5781516123468782612223565b965061235183612d98565b925050600181019050612332565b505050505050565b61237081612d6a565b61237a8184612de0565b925061238582612d3b565b8060005b838110156123b657815161239d878261223b565b96506123a883612d98565b925050600181019050612389565b505050505050565b6123c781612d75565b6123d18184612deb565b92506123dc82612d45565b8060005b8381101561240d5781516123f48782612223565b96506123ff83612da5565b9250506001810190506123e0565b505050505050565b61241e81612d75565b6124288184612df6565b925061243382612d45565b8060005b8381101561246457815161244b878261223b565b965061245683612da5565b925050600181019050612437565b505050505050565b600061247782612d80565b6124818185612e01565b935061248c83612d4f565b8060005b838110156124bd5781516124a4888261223b565b97506124af83612db2565b925050600181019050612490565b5085935050505092915050565b6124d381612e3b565b82525050565b6124e281612e6f565b82525050565b6124f181612e93565b82525050565b6000612504600f83612e0c565b91507f496e76616c6964206465706f73697400000000000000000000000000000000006000830152602082019050919050565b6000612544602283612e0c565b91507f496e76616c696420646973707574652072657665616c206f726465722070686160008301527f73650000000000000000000000000000000000000000000000000000000000006020830152604082019050919050565b60006125aa601a83612e0c565b91507f5468652070726f6f6620697320616c72656164792076616c69640000000000006000830152602082019050919050565b60006125ea602283612e0c565b91507f496e76616c69642064697370757465207375626d6974206f726465722070686160008301527f73650000000000000000000000000000000000000000000000000000000000006020830152604082019050919050565b6000612650601583612e0c565b91507f496e76616c69642062696464696e6720706861736500000000000000000000006000830152602082019050919050565b6000612690601183612e0c565b91507f6f6e6c7920746865206f70657261746f720000000000000000000000000000006000830152602082019050919050565b60006126d0601283612e0c565b91507f696e636f6e73697374656e7420696e70757400000000000000000000000000006000830152602082019050919050565b6000612710601483612e0c565b91507f496e76616c69642072657665616c2070686173650000000000000000000000006000830152602082019050919050565b6000612750601a83612e0c565b91507f496e76616c696420636c656172206d61726b65742070686173650000000000006000830152602082019050919050565b6000612790601283612e0c565b91507f496e636f6e73697374616e7420696e70757400000000000000000000000000006000830152602082019050919050565b6127cc81612e65565b82525050565b6127db81612e65565b82525050565b6127ea81612e65565b82525050565b6128016127fc82612e65565b612eb7565b82525050565b600061281382846122b9565b6103a08201915081905092915050565b600061282f8284612367565b60408201915081905092915050565b600061284a8285612367565b60408201915061285a82846122b9565b6103a0820191508190509392505050565b60006128778286612367565b6040820191506128878285612367565b6040820191506128978284612415565b61010082019150819050949350505050565b60006128b5828461246c565b915081905092915050565b60006128cc82846127f0565b60208201915081905092915050565b60006020820190506128f06000830184612253565b92915050565b60006103e08201905061290c6000830185612310565b6129196040830184612262565b9392505050565b60006107c0820190506129366000830187612310565b6129436040830186612262565b6129516103e0830185612310565b61295f610420830184612262565b95945050505050565b60006101c08201905061297e6000830187612310565b61298b6040830186612310565b6129986080830185612310565b6129a560c08301846123be565b95945050505050565b6000610300820190506129c46000830189612310565b6129d16040830188612310565b6129de60808301876123be565b6129ec610180830186612310565b6129fa6101c0830185612310565b612a086102008301846123be565b979650505050505050565b6000602082019050612a2860008301846124ca565b92915050565b6000602082019050612a4360008301846124d9565b92915050565b6000602082019050612a5e60008301846124e8565b92915050565b60006020820190508181036000830152612a7d816124f7565b9050919050565b60006020820190508181036000830152612a9d81612537565b9050919050565b60006020820190508181036000830152612abd8161259d565b9050919050565b60006020820190508181036000830152612add816125dd565b9050919050565b60006020820190508181036000830152612afd81612643565b9050919050565b60006020820190508181036000830152612b1d81612683565b9050919050565b60006020820190508181036000830152612b3d816126c3565b9050919050565b60006020820190508181036000830152612b5d81612703565b9050919050565b60006020820190508181036000830152612b7d81612743565b9050919050565b60006020820190508181036000830152612b9d81612783565b9050919050565b6000602082019050612bb960008301846127d2565b92915050565b6000608082019050612bd460008301876127d2565b612be160208301866127d2565b612bee60408301856127d2565b612bfb60608301846127d2565b95945050505050565b6000604051905081810181811067ffffffffffffffff82111715612c2757600080fd5b8060405250919050565b600067ffffffffffffffff821115612c4857600080fd5b602082029050602081019050919050565b600067ffffffffffffffff821115612c7057600080fd5b602082029050919050565b600067ffffffffffffffff821115612c9257600080fd5b602082029050919050565b600067ffffffffffffffff821115612cb457600080fd5b602082029050919050565b600067ffffffffffffffff821115612cd657600080fd5b602082029050919050565b600067ffffffffffffffff821115612cf857600080fd5b602082029050602081019050919050565b600067ffffffffffffffff821115612d2057600080fd5b602082029050602081019050919050565b6000819050919050565b6000819050919050565b6000819050919050565b6000819050602082019050919050565b6000601d9050919050565b600060029050919050565b600060089050919050565b600081519050919050565b6000602082019050919050565b6000602082019050919050565b6000602082019050919050565b6000602082019050919050565b600081905092915050565b600081905092915050565b600081905092915050565b600081905092915050565b600081905092915050565b600081905092915050565b600081905092915050565b600082825260208201905092915050565b6000612e2882612e45565b9050919050565b60008115159050919050565b6000819050919050565b600073ffffffffffffffffffffffffffffffffffffffff82169050919050565b6000819050919050565b6000612e7a82612e81565b9050919050565b6000612e8c82612e45565b9050919050565b6000612e9e82612ea5565b9050919050565b6000612eb082612e45565b9050919050565b6000819050919050565b612eca81612e1d565b8114612ed557600080fd5b50565b612ee181612e2f565b8114612eec57600080fd5b50565b612ef881612e65565b8114612f0357600080fd5b5056fea365627a7a723158208f39d87a65851332129e2d9d871765f7c75274bff343b56088195fc3b8e850b36c6578706572696d656e74616cf564736f6c634300050c0040",
  "source": "pragma solidity ^0.5.0;\r\npragma experimental ABIEncoderV2;\r\nimport \"./RangeProofVerifier.sol\";\r\nimport \"./ElGamalProofVerifier.sol\";\r\n\r\ncontract Auction {\r\n    struct Order {\r\n        bytes32 Price;\r\n        bytes32 PriceProof;\r\n        bytes32 Quantity;\r\n        bytes32 QuantityProof;\r\n        bytes32 PriceElGamalProof;\r\n        bytes32 QuantityElGamalProof;\r\n    }\r\n    struct Interval{\r\n        uint Submit;\r\n        uint Reveal;\r\n        uint Clear;\r\n        uint Dispute;\r\n    }\r\n    event orderCreated(address indexed trader, bool indexed isBuyOrder, uint[2] price, uint[29] priceProof,\r\n     uint[2] quantity, uint[29] quantityProof);\r\n    event orderRevealed(address indexed trader, bool indexed isBuyOrder, uint[2] priceC1, uint[2] priceC2, uint[8] priceProof,\r\n     uint[2] quantityC1, uint[2] quantityC2, uint[8] quantityProof);\r\n\r\n    mapping(address=>Order) BuyOrders;\r\n    mapping(address=>Order) SellOrders;\r\n    address[] public Buyers;\r\n    address[] public Sellers;\r\n    bytes32[] public BuyProofs;\r\n    bytes32[] public SellProofs;\r\n    uint[] public BuyersSortedPositions;\r\n    uint[] public SellersSortedPositions;\r\n    Interval public IntervalsEnd;\r\n    uint constant public DEPOSIT = 1 ether;\r\n    address public operator;\r\n\r\n    RangeProofVerifier public bulletProofVerifier;\r\n    ElGamalProofVerifier public elgamalProofVerifier;\r\n\r\n    uint public marketPrice;\r\n\r\n    constructor (address _bulletProofverifier, address _elgamalProofVerifier, uint[4] memory _timeIntervals, uint[2] memory _operatorPublicKey) public payable {\r\n        require(msg.value == DEPOSIT,\"not valid deposit\");\r\n        bulletProofVerifier = RangeProofVerifier(_bulletProofverifier);\r\n        elgamalProofVerifier = ElGamalProofVerifier(_elgamalProofVerifier);\r\n        IntervalsEnd = Interval(_timeIntervals[0],_timeIntervals[1],_timeIntervals[2],_timeIntervals[3]);\r\n        operator = msg.sender;\r\n    }\r\n\r\n    function FindOrder(address owner) private returns (Order storage) {\r\n        Order storage order = BuyOrders[owner];\r\n        if(order.Price==0)\r\n            order = SellOrders[owner];\r\n        return order;\r\n    }\r\n\r\n    function RemoveOrder(address owner) private {\r\n        if(BuyOrders[owner].Price!=0) {\r\n            delete BuyOrders[owner];\r\n            for(uint i=0; i<Buyers.length; i++) \r\n                if(Buyers[i] == owner) {\r\n                    for(uint j=i; j<Buyers.length-1;j++) \r\n                        Buyers[j] = Buyers[j+1];\r\n                    Buyers.length = Buyers.length-1;\r\n                    break;\r\n                }\r\n        }\r\n        if(SellOrders[owner].Price!=0) {\r\n            delete SellOrders[owner];\r\n            for(uint i=0; i<Sellers.length; i++) \r\n                if(Sellers[i] == owner) {\r\n                    for(uint j=i; j<Sellers.length-1;j++) \r\n                        Sellers[j] = Sellers[j+1];\r\n                    Sellers.length = Sellers.length-1;\r\n                    break;\r\n                }\r\n        }\r\n    }\r\n    function SubmitOrder(bool direction, uint[2] memory price, uint[29] memory priceProof,\r\n    uint[2] memory quantity, uint[29] memory quantityProof) public payable {\r\n        require(block.number < IntervalsEnd.Submit,\"Invalid bidding phase\");\r\n        require(msg.value == DEPOSIT,\"Invalid deposit\");\r\n        emit orderCreated(msg.sender, direction, price, priceProof, quantity, quantityProof);\r\n        Order memory order = Order(keccak256(abi.encodePacked(price)),keccak256(abi.encodePacked(price,priceProof)),\r\n        keccak256(abi.encodePacked(quantity)),keccak256(abi.encodePacked(quantityProof)),0,0);\r\n        if(direction) {\r\n            BuyOrders[msg.sender] = order;\r\n            Buyers.push(msg.sender);\r\n        } else {\r\n            SellOrders[msg.sender] = order;\r\n            Sellers.push(msg.sender);\r\n        }\r\n    }\r\n\r\n    function DisputeSubmitOrder(address owner, uint[2] memory commitment, uint[29] memory proof) public {\r\n        require(block.number > IntervalsEnd.Submit && block.number < IntervalsEnd.Submit + IntervalsEnd.Dispute,\r\n        \"Invalid dispute submit order phase\");\r\n        bytes32 hash = keccak256(abi.encodePacked(commitment,proof));\r\n        Order storage order = FindOrder(owner);\r\n        require((hash == order.PriceProof) || (hash == order.QuantityProof),\"Inconsistant input\");\r\n        require(bulletProofVerifier.Verify(commitment, proof)==false, \"The proof is already valid\");\r\n        RemoveOrder(owner);\r\n        msg.sender.transfer(DEPOSIT);\r\n    }\r\n\r\n    function RevealOrder(bool isBuyOrder, uint[2] memory priceC1, uint[2] memory priceC2, uint[8] memory priceProof,\r\n     uint[2] memory quantityC1, uint[2] memory quantityC2, uint[8] memory quantityProof) public {\r\n        require(block.number > IntervalsEnd.Submit+IntervalsEnd.Dispute && block.number < IntervalsEnd.Reveal,\"Invalid reveal phase\");\r\n        emit orderRevealed(msg.sender, isBuyOrder, priceC1, priceC2, priceProof, quantityC1, quantityC2, quantityProof);\r\n        Order storage order = FindOrder(msg.sender);\r\n        order.PriceElGamalProof = keccak256(abi.encodePacked(priceC1,priceC2,priceProof));\r\n        order.QuantityElGamalProof = keccak256(abi.encodePacked(quantityC1,quantityC2,quantityProof));\r\n    }\r\n\r\n    function DisputeRevealOrder(address owner, uint[2] memory commitment, uint[2] memory c1, uint[2] memory c2, uint[8] memory proof) public {\r\n        require(block.number > IntervalsEnd.Reveal && block.number < IntervalsEnd.Reveal + IntervalsEnd.Dispute,\r\n        \"Invalid dispute reveal order phase\");\r\n        Order storage order = FindOrder(owner);\r\n        require(order.Price == keccak256(abi.encodePacked(commitment)) && order.PriceElGamalProof == keccak256(abi.encodePacked(c1,c2,proof)) ||\r\n        order.Quantity == keccak256(abi.encodePacked(commitment)) && order.QuantityElGamalProof == keccak256(abi.encodePacked(c1,c2,proof)), \"inconsistent input\");\r\n        require(elgamalProofVerifier.Verify(commitment, c1, c2, proof)==false, \"The proof is already valid\");\r\n        RemoveOrder(owner);\r\n        msg.sender.transfer(DEPOSIT);\r\n    }\r\n\r\n    function DisuputeUnrevealedOrder(address[] memory owners) public {\r\n        require(block.number > IntervalsEnd.Reveal && block.number < IntervalsEnd.Reveal + IntervalsEnd.Dispute,\r\n        \"Invalid dispute reveal order phase\");\r\n        for(uint i=0; i<owners.length; i++) {\r\n            Order storage order = FindOrder(owners[i]);\r\n            if(order.PriceElGamalProof == 0) {\r\n                RemoveOrder(owners[i]);\r\n                msg.sender.transfer(DEPOSIT);\r\n            }\r\n        }\r\n    }\r\n\r\n    function ClearMarket(uint _marketPrice, uint[2] memory pricePoint,uint[] memory x, uint[] memory y, uint[][29] memory buyProofs, uint[][29] memory sellProofs) public {\r\n        require(block.number > IntervalsEnd.Reveal+IntervalsEnd.Dispute && block.number < IntervalsEnd.Clear,\r\n        \"Invalid clear market phase\");\r\n        require(msg.sender == operator,\"only the operator\");\r\n        marketPrice = _marketPrice;\r\n        Order memory order = Order(keccak256(abi.encodePacked(marketPrice)),0,0,0,0,0);\r\n        BuyOrders[msg.sender] = order;\r\n        SellOrders[msg.sender] = order;\r\n        Buyers.push(msg.sender);\r\n        Sellers.push(msg.sender);\r\n        BuyersSortedPositions = x;\r\n        SellersSortedPositions = x;\r\n        for(uint i=0; i< buyProofs.length;i++) \r\n            BuyProofs.push(keccak256(abi.encodePacked(buyProofs[i])));\r\n        for(uint i=0; i<sellProofs.length;i++) \r\n            SellProofs.push(keccak256(abi.encodePacked(sellProofs[i])));\r\n        \r\n    }\r\n    \r\n\r\n}",
  "sourcePath": "/media/hisham/Data/Coding/PeriodicAuction/contracts/Auction.sol",
  "compiler": {
    "name": "solc",
    "version": "0.5.12+commit.7709ece9.Emscripten.clang"
  },
  "schemaVersion": "3.0.20",
  "updatedAt": "2019-12-30T21:30:25.757Z",
  "devdoc": {
    "methods": {}
  },
  "userdoc": {
    "methods": {}
  }
}