{
  "contractName": "EfficientInnerProductVerifier",
  "abi": [
    {
      "inputs": [
        {
          "internalType": "address",
          "name": "_publicParameters",
          "type": "address"
        }
      ],
      "payable": false,
      "stateMutability": "nonpayable",
      "type": "constructor"
    },
    {
      "constant": true,
      "inputs": [],
      "name": "m",
      "outputs": [
        {
          "internalType": "uint256",
          "name": "",
          "type": "uint256"
        }
      ],
      "payable": false,
      "stateMutability": "view",
      "type": "function"
    },
    {
      "constant": true,
      "inputs": [],
      "name": "n",
      "outputs": [
        {
          "internalType": "uint256",
          "name": "",
          "type": "uint256"
        }
      ],
      "payable": false,
      "stateMutability": "view",
      "type": "function"
    },
    {
      "constant": true,
      "inputs": [],
      "name": "publicParameters",
      "outputs": [
        {
          "internalType": "contract PublicParameters",
          "name": "",
          "type": "address"
        }
      ],
      "payable": false,
      "stateMutability": "view",
      "type": "function"
    },
    {
      "constant": true,
      "inputs": [
        {
          "internalType": "uint256",
          "name": "c_x",
          "type": "uint256"
        },
        {
          "internalType": "uint256",
          "name": "c_y",
          "type": "uint256"
        },
        {
          "internalType": "uint256[8]",
          "name": "ls",
          "type": "uint256[8]"
        },
        {
          "internalType": "uint256[8]",
          "name": "rs",
          "type": "uint256[8]"
        },
        {
          "internalType": "uint256",
          "name": "A",
          "type": "uint256"
        },
        {
          "internalType": "uint256",
          "name": "B",
          "type": "uint256"
        }
      ],
      "name": "verify",
      "outputs": [
        {
          "internalType": "bool",
          "name": "",
          "type": "bool"
        }
      ],
      "payable": false,
      "stateMutability": "view",
      "type": "function"
    },
    {
      "constant": true,
      "inputs": [
        {
          "components": [
            {
              "internalType": "uint256",
              "name": "X",
              "type": "uint256"
            },
            {
              "internalType": "uint256",
              "name": "Y",
              "type": "uint256"
            }
          ],
          "internalType": "struct alt_bn128.G1Point",
          "name": "c",
          "type": "tuple"
        },
        {
          "internalType": "uint256[8]",
          "name": "ls",
          "type": "uint256[8]"
        },
        {
          "internalType": "uint256[8]",
          "name": "rs",
          "type": "uint256[8]"
        },
        {
          "internalType": "uint256",
          "name": "A",
          "type": "uint256"
        },
        {
          "internalType": "uint256",
          "name": "B",
          "type": "uint256"
        },
        {
          "components": [
            {
              "internalType": "uint256",
              "name": "X",
              "type": "uint256"
            },
            {
              "internalType": "uint256",
              "name": "Y",
              "type": "uint256"
            }
          ],
          "internalType": "struct alt_bn128.G1Point[16]",
          "name": "gs",
          "type": "tuple[16]"
        },
        {
          "components": [
            {
              "internalType": "uint256",
              "name": "X",
              "type": "uint256"
            },
            {
              "internalType": "uint256",
              "name": "Y",
              "type": "uint256"
            }
          ],
          "internalType": "struct alt_bn128.G1Point[16]",
          "name": "hs",
          "type": "tuple[16]"
        },
        {
          "components": [
            {
              "internalType": "uint256",
              "name": "X",
              "type": "uint256"
            },
            {
              "internalType": "uint256",
              "name": "Y",
              "type": "uint256"
            }
          ],
          "internalType": "struct alt_bn128.G1Point",
          "name": "H",
          "type": "tuple"
        }
      ],
      "name": "verifyWithCustomParams",
      "outputs": [
        {
          "internalType": "bool",
          "name": "",
          "type": "bool"
        }
      ],
      "payable": false,
      "stateMutability": "view",
      "type": "function"
    }
  ],
  "bytecode": "0x60806040523480156200001157600080fd5b506040516200158b3803806200158b833981810160405262000037919081019062000095565b806000806101000a81548173ffffffffffffffffffffffffffffffffffffffff021916908373ffffffffffffffffffffffffffffffffffffffff160217905550506200010f565b6000815190506200008f81620000f5565b92915050565b600060208284031215620000a857600080fd5b6000620000b8848285016200007e565b91505092915050565b6000620000ce82620000d5565b9050919050565b600073ffffffffffffffffffffffffffffffffffffffff82169050919050565b6200010081620000c1565b81146200010c57600080fd5b50565b61146c806200011f6000396000f3fe608060405234801561001057600080fd5b50600436106100575760003560e01c806309dae0601461005c5780632e52d6061461008c5780632fe6b34d146100aa57806357bac812146100c85780635a2ee019146100f8575b600080fd5b610076600480360361007191908101906110f3565b610116565b60405161008391906112ec565b60405180910390f35b610094610613565b6040516100a19190611322565b60405180910390f35b6100b2610618565b6040516100bf9190611307565b60405180910390f35b6100e260048036036100dd91908101906111ab565b61063d565b6040516100ef91906112ec565b60405180910390f35b610100610849565b60405161010d9190611322565b60405180910390f35b6000610120610c24565b89816040018190525060008090505b600481101561030b5760405180604001604052808b836002026008811061015257fe5b602002015181526020018b600184600202016008811061016e57fe5b6020020151815250826060018190525060405180604001604052808a836002026008811061019857fe5b602002015181526020018a60018460020201600881106101b457fe5b602002015181525082608001819052506102308260600151600001518360600151602001518460400151600001518560400151602001518660800151600001518760800151602001516040516020016102129695949392919061127c565b6040516020818303038152906040528051906020012060001c61084e565b8260a00181815250506102468260a00151610886565b8260c00181815250506102d882604001516102ca61028b6102788660c001518760c0015161095090919063ffffffff16565b866080015161098a90919063ffffffff16565b6102bc6102a98760a001518860a0015161095090919063ffffffff16565b876060015161098a90919063ffffffff16565b610a2f90919063ffffffff16565b610a2f90919063ffffffff16565b82604001819052508160a001518260e0015182600481106102f557fe5b602002018181525050808060010191505061012f565b508060e0015160006004811061031d57fe5b602002015181610100015160006010811061033457fe5b6020020181815250506000600190505b60048110156103b25761038a8260e00151826004811061036057fe5b602002015183610100015160006010811061037757fe5b602002015161095090919063ffffffff16565b82610100015160006010811061039c57fe5b6020020181815250508080600101915050610344565b506103d28161010001516000601081106103c857fe5b6020020151610886565b8161010001516000601081106103e457fe5b60200201818152505060008090505b60026010816103fe57fe5b048110156105135760008090505b601082826001901b011015610507576000816001901b83019050836101a00151816010811061043757fe5b60200201516104fb576104878460e00151836001600403036004811061045957fe5b60200201518560e00151846001600403036004811061047457fe5b602002015161095090919063ffffffff16565b846101c00181815250506104be846101c0015185610100015185601081106104ab57fe5b602002015161095090919063ffffffff16565b84610100015182601081106104cf57fe5b6020020181815250506001846101a0015182601081106104eb57fe5b6020020190151590811515815250505b5080600101905061040c565b508060010190506103f3565b5061052381610100015186610ac7565b81610120018190525061053b81610100015185610b71565b816101400181905250610557868861095090919063ffffffff16565b816101600181815250506105cb61057c8261016001518561098a90919063ffffffff16565b6105bd6105978985610140015161098a90919063ffffffff16565b6105af8b86610120015161098a90919063ffffffff16565b610a2f90919063ffffffff16565b610a2f90919063ffffffff16565b81610180018190525080604001516000015181610180015160000151148015610604575080604001516020015181610180015160200151145b91505098975050505050505050565b600481565b6000809054906101000a900473ffffffffffffffffffffffffffffffffffffffff1681565b600061083d604051806040016040528089815260200188815250868686866000809054906101000a900473ffffffffffffffffffffffffffffffffffffffff1673ffffffffffffffffffffffffffffffffffffffff1662e71aaf6040518163ffffffff1660e01b81526004016104006040518083038186803b1580156106c257600080fd5b505afa1580156106d6573d6000803e3d6000fd5b505050506040513d601f19601f820116820180604052506106fa91908101906110a0565b6000809054906101000a900473ffffffffffffffffffffffffffffffffffffffff1673ffffffffffffffffffffffffffffffffffffffff1663e1db76d86040518163ffffffff1660e01b81526004016104006040518083038186803b15801561076257600080fd5b505afa158015610776573d6000803e3d6000fd5b505050506040513d601f19601f8201168201806040525061079a91908101906110a0565b6000809054906101000a900473ffffffffffffffffffffffffffffffffffffffff1673ffffffffffffffffffffffffffffffffffffffff166370a5d8616040518163ffffffff1660e01b8152600401604080518083038186803b15801561080057600080fd5b505afa158015610814573d6000803e3d6000fd5b505050506040513d601f19601f8201168201806040525061083891908101906110ca565b610116565b90509695505050505050565b601081565b6000807f30644e72e131a029b85045b68181585d2833e84879b9709143e1f593f0000001905080838161087d57fe5b06915050919050565b6000807f30644e72e131a029b85045b68181585d2833e84879b9709143e1f593f00000019050600083905060008114156108c55760009250505061094b565b818111156108da578181816108d657fe5b0690505b600080600190506000849050600084905060005b60008214610923578183816108ff57fe5b049050838482028603838484028603809550819650829750839850505050506108ee565b60008512156109405784600003870397505050505050505061094b565b849750505050505050505b919050565b6000807f30644e72e131a029b85045b68181585d2833e84879b9709143e1f593f00000019050808061097e57fe5b83850991505092915050565b610992610cdc565b60018214156109a357829050610a29565b60028214156109bd576109b68384610a2f565b9050610a29565b6109c5610cf6565b8360000151816000600381106109d757fe5b6020020181815250508360200151816001600381106109f257fe5b6020020181815250508281600260038110610a0957fe5b6020020181815250506040826060836007600019fa610a2757600080fd5b505b92915050565b610a37610cdc565b610a3f610d18565b836000015181600060048110610a5157fe5b602002018181525050836020015181600160048110610a6c57fe5b602002018181525050826000015181600260048110610a8757fe5b602002018181525050826020015181600360048110610aa257fe5b6020020181815250506040826080836006600019fa610ac057600080fd5b5092915050565b610acf610cdc565b610b0483600060108110610adf57fe5b602002015183600060108110610af157fe5b602002015161098a90919063ffffffff16565b90506000600190505b6010811015610b6a57610b5b610b4c858360108110610b2857fe5b6020020151858460108110610b3957fe5b602002015161098a90919063ffffffff16565b83610a2f90919063ffffffff16565b91508080600101915050610b0d565b5092915050565b610b79610cdc565b610bb183600160100360108110610b8c57fe5b602002015183600060108110610b9e57fe5b602002015161098a90919063ffffffff16565b90506000600190505b6010811015610c1d57610c0e610bff858360016010030360108110610bdb57fe5b6020020151858460108110610bec57fe5b602002015161098a90919063ffffffff16565b83610a2f90919063ffffffff16565b91508080600101915050610bba565b5092915050565b604051806101e00160405280610c38610d3a565b8152602001610c45610d68565b8152602001610c52610d68565b8152602001610c5f610d68565b8152602001610c6c610d68565b81526020016000815260200160008152602001610c87610d82565b8152602001610c94610da4565b8152602001610ca1610d68565b8152602001610cae610d68565b815260200160008152602001610cc2610d68565b8152602001610ccf610dc7565b8152602001600081525090565b604051806040016040528060008152602001600081525090565b6040518060600160405280600390602082028038833980820191505090505090565b6040518060800160405280600490602082028038833980820191505090505090565b6040518061020001604052806010905b610d52610d68565b815260200190600190039081610d4a5790505090565b604051806040016040528060008152602001600081525090565b6040518060800160405280600490602082028038833980820191505090505090565b604051806102000160405280601090602082028038833980820191505090505090565b604051806102000160405280601090602082028038833980820191505090505090565b600082601f830112610dfb57600080fd5b6010610e0e610e098261136a565b61133d565b91508183856040840282011115610e2457600080fd5b60005b83811015610e545781610e3a8882610f46565b845260208401935060408301925050600181019050610e27565b5050505092915050565b600082601f830112610e6f57600080fd5b6010610e82610e7d8261136a565b61133d565b91508183856040840282011115610e9857600080fd5b60005b83811015610ec85781610eae8882610f92565b845260208401935060408301925050600181019050610e9b565b5050505092915050565b600082601f830112610ee357600080fd5b6008610ef6610ef18261138c565b61133d565b91508183856020840282011115610f0c57600080fd5b60005b83811015610f3c5781610f228882611076565b845260208401935060208301925050600181019050610f0f565b5050505092915050565b600060408284031215610f5857600080fd5b610f62604061133d565b90506000610f7284828501611076565b6000830152506020610f8684828501611076565b60208301525092915050565b600060408284031215610fa457600080fd5b610fae604061133d565b90506000610fbe8482850161108b565b6000830152506020610fd28482850161108b565b60208301525092915050565b600060408284031215610ff057600080fd5b610ffa604061133d565b9050600061100a84828501611076565b600083015250602061101e84828501611076565b60208301525092915050565b60006040828403121561103c57600080fd5b611046604061133d565b905060006110568482850161108b565b600083015250602061106a8482850161108b565b60208301525092915050565b60008135905061108581611412565b92915050565b60008151905061109a81611412565b92915050565b600061040082840312156110b357600080fd5b60006110c184828501610e5e565b91505092915050565b6000604082840312156110dc57600080fd5b60006110ea8482850161102a565b91505092915050565b600080600080600080600080610ac0898b03121561111057600080fd5b600061111e8b828c01610fde565b985050604061112f8b828c01610ed2565b9750506101406111418b828c01610ed2565b9650506102406111538b828c01611076565b9550506102606111658b828c01611076565b9450506102806111778b828c01610dea565b9350506106806111898b828c01610dea565b925050610a8061119b8b828c01610fde565b9150509295985092959890939650565b60008060008060008061028087890312156111c557600080fd5b60006111d389828a01611076565b96505060206111e489828a01611076565b95505060406111f589828a01610ed2565b94505061014061120789828a01610ed2565b93505061024061121989828a01611076565b92505061026061122b89828a01611076565b9150509295509295509295565b611241816113ae565b82525050565b611250816113e4565b82525050565b61125f816113da565b82525050565b611276611271826113da565b611408565b82525050565b60006112888289611265565b6020820191506112988288611265565b6020820191506112a88287611265565b6020820191506112b88286611265565b6020820191506112c88285611265565b6020820191506112d88284611265565b602082019150819050979650505050505050565b60006020820190506113016000830184611238565b92915050565b600060208201905061131c6000830184611247565b92915050565b60006020820190506113376000830184611256565b92915050565b6000604051905081810181811067ffffffffffffffff8211171561136057600080fd5b8060405250919050565b600067ffffffffffffffff82111561138157600080fd5b602082029050919050565b600067ffffffffffffffff8211156113a357600080fd5b602082029050919050565b60008115159050919050565b600073ffffffffffffffffffffffffffffffffffffffff82169050919050565b6000819050919050565b60006113ef826113f6565b9050919050565b6000611401826113ba565b9050919050565b6000819050919050565b61141b816113da565b811461142657600080fd5b5056fea365627a7a72315820e51b8728a7012b98a7758d55379e4e4d32caf997737b9ac0b52fbd306b2d9e1b6c6578706572696d656e74616cf564736f6c634300050c0040",
  "source": "pragma solidity ^0.5.0;\r\npragma experimental ABIEncoderV2;\r\nimport \"./alt_bn128.sol\";\r\nimport {PublicParameters} from \"./PublicParameters.sol\";\r\n\r\ncontract EfficientInnerProductVerifier {\r\n    using alt_bn128 for uint256;\r\n    using alt_bn128 for alt_bn128.G1Point;\r\n\r\n    uint256 public constant m = 16;\r\n    uint256 public constant n = 4;\r\n\r\n    PublicParameters public publicParameters;\r\n\r\n    constructor(address _publicParameters) public {\r\n        publicParameters = PublicParameters(_publicParameters);\r\n    }\r\n\r\n    struct Board {\r\n        alt_bn128.G1Point[m] hs;\r\n        alt_bn128.G1Point H;\r\n        alt_bn128.G1Point c;\r\n        alt_bn128.G1Point l;\r\n        alt_bn128.G1Point r;\r\n        uint256 x;\r\n        uint256 xInv;\r\n        uint256[n] challenges;\r\n        uint256[m] otherExponents;\r\n        alt_bn128.G1Point g;\r\n        alt_bn128.G1Point h;\r\n        uint256 prod;\r\n        alt_bn128.G1Point cProof;\r\n        bool[m] bitSet;\r\n        uint256 z;\r\n    }\r\n\r\n    function verify(\r\n        uint256 c_x,\r\n        uint256 c_y,\r\n        uint256[2*n] memory ls,\r\n        uint256[2*n] memory rs,\r\n        uint256 A,\r\n        uint256 B\r\n    ) public\r\n    view\r\n    returns (bool) {\r\n        return verifyWithCustomParams(alt_bn128.G1Point(c_x, c_y), ls, rs, A, B, publicParameters.gs(),\r\n        publicParameters.hs(), publicParameters.H());\r\n    }\r\n\r\n    function verifyWithCustomParams(\r\n        alt_bn128.G1Point memory c,\r\n        uint256[2*n] memory ls,\r\n        uint256[2*n] memory rs,\r\n        uint256 A,\r\n        uint256 B,\r\n        alt_bn128.G1Point[m] memory gs,\r\n        alt_bn128.G1Point[m] memory hs,\r\n        alt_bn128.G1Point memory H\r\n    ) public\r\n    view \r\n    returns (bool) {\r\n        Board memory b;\r\n        b.c = c;\r\n        for (uint256 i = 0; i < n; i++) {\r\n            b.l = alt_bn128.G1Point(ls[2*i], ls[2*i+1]);\r\n            b.r = alt_bn128.G1Point(rs[2*i], rs[2*i+1]);\r\n            b.x = uint256(keccak256(abi.encodePacked(b.l.X, b.l.Y, b.c.X, b.c.Y, b.r.X, b.r.Y))).mod();\r\n            b.xInv = b.x.inv();\r\n            // b.c = b.l.mul(b.x.modExp(2))\r\n            //     .add(b.r.mul(b.xInv.modExp(2)))\r\n            //     .add(b.c);\r\n            b.c = b.l.mul(b.x.mul(b.x))\r\n                .add(b.r.mul(b.xInv.mul(b.xInv)))\r\n                .add(b.c);\r\n            b.challenges[i] = b.x;\r\n        }\r\n        b.otherExponents[0] = b.challenges[0];\r\n        for (uint256 i = 1; i < n; i++) {\r\n            b.otherExponents[0] = b.otherExponents[0].mul(b.challenges[i]);\r\n        }\r\n        b.otherExponents[0] = b.otherExponents[0].inv();\r\n        for (uint256 i = 0; i < m/2; ++i) {\r\n            for (uint256 j = 0; (uint256(1) << j) + i < m; ++j) {\r\n                uint256 i1 = i + (uint256(1) << j);\r\n                if (!b.bitSet[i1]) {\r\n                    b.z = b.challenges[n-1-j].mul(b.challenges[n-1-j]);\r\n                    b.otherExponents[i1] = b.otherExponents[i].mul(b.z);\r\n                    b.bitSet[i1] = true;\r\n                }\r\n            }\r\n        }\r\n        b.g = multiExp(b.otherExponents, gs); // 64*40000 gas\r\n        b.h = multiExpInversed(b.otherExponents, hs); //64*40000 gas\r\n        b.prod = A.mul(B);\r\n        b.cProof = b.g.mul(A)\r\n            .add(b.h.mul(B))\r\n            .add(H.mul(b.prod));\r\n        return b.cProof.X == b.c.X && b.cProof.Y == b.c.Y;\r\n    }\r\n\r\n    function multiExp(uint256[m] memory ss, alt_bn128.G1Point[m] memory gs) internal view returns (alt_bn128.G1Point memory g) {\r\n        g = gs[0].mul(ss[0]);\r\n        for (uint256 i = 1; i < m; i++) {\r\n            g = g.add(gs[i].mul(ss[i]));\r\n        }\r\n    }\r\n\r\n    function multiExpInversed(uint256[m] memory ss, alt_bn128.G1Point[m] memory hs) internal view returns (alt_bn128.G1Point memory h) {\r\n        h = hs[0].mul(ss[m-1]);\r\n        for (uint256 i = 1; i < m; i++) {\r\n            h = h.add(hs[i].mul(ss[m-1-i]));\r\n        }\r\n    }\r\n}\r\n",
  "sourcePath": "/media/hisham/Data/Coding/PeriodicAuction/contracts/EfficientInnerProductVerifier.sol",
  "compiler": {
    "name": "solc",
    "version": "0.5.12+commit.7709ece9.Emscripten.clang"
  },
  "schemaVersion": "3.0.20",
  "updatedAt": "2019-12-30T21:30:25.780Z",
  "devdoc": {
    "methods": {}
  },
  "userdoc": {
    "methods": {}
  }
}