{
  "contractName": "ElGamalProofVerifier",
  "abi": [
    {
      "inputs": [
        {
          "internalType": "uint256[2]",
          "name": "_g",
          "type": "uint256[2]"
        },
        {
          "internalType": "uint256[2]",
          "name": "_h",
          "type": "uint256[2]"
        },
        {
          "internalType": "uint256[2]",
          "name": "_g2",
          "type": "uint256[2]"
        },
        {
          "internalType": "uint256[2]",
          "name": "_y",
          "type": "uint256[2]"
        }
      ],
      "payable": false,
      "stateMutability": "nonpayable",
      "type": "constructor"
    },
    {
      "constant": true,
      "inputs": [],
      "name": "g",
      "outputs": [
        {
          "internalType": "uint256",
          "name": "X",
          "type": "uint256"
        },
        {
          "internalType": "uint256",
          "name": "Y",
          "type": "uint256"
        }
      ],
      "payable": false,
      "stateMutability": "view",
      "type": "function"
    },
    {
      "constant": true,
      "inputs": [],
      "name": "g2",
      "outputs": [
        {
          "internalType": "uint256",
          "name": "X",
          "type": "uint256"
        },
        {
          "internalType": "uint256",
          "name": "Y",
          "type": "uint256"
        }
      ],
      "payable": false,
      "stateMutability": "view",
      "type": "function"
    },
    {
      "constant": true,
      "inputs": [],
      "name": "h",
      "outputs": [
        {
          "internalType": "uint256",
          "name": "X",
          "type": "uint256"
        },
        {
          "internalType": "uint256",
          "name": "Y",
          "type": "uint256"
        }
      ],
      "payable": false,
      "stateMutability": "view",
      "type": "function"
    },
    {
      "constant": true,
      "inputs": [],
      "name": "y",
      "outputs": [
        {
          "internalType": "uint256",
          "name": "X",
          "type": "uint256"
        },
        {
          "internalType": "uint256",
          "name": "Y",
          "type": "uint256"
        }
      ],
      "payable": false,
      "stateMutability": "view",
      "type": "function"
    },
    {
      "constant": false,
      "inputs": [
        {
          "internalType": "uint256[2]",
          "name": "_C",
          "type": "uint256[2]"
        },
        {
          "internalType": "uint256[2]",
          "name": "_c1",
          "type": "uint256[2]"
        },
        {
          "internalType": "uint256[2]",
          "name": "_c2",
          "type": "uint256[2]"
        },
        {
          "internalType": "uint256[8]",
          "name": "proof",
          "type": "uint256[8]"
        }
      ],
      "name": "Verify",
      "outputs": [
        {
          "internalType": "bool",
          "name": "",
          "type": "bool"
        }
      ],
      "payable": false,
      "stateMutability": "nonpayable",
      "type": "function"
    }
  ],
  "bytecode": "0x608060405234801561001057600080fd5b50604051610c7f380380610c7f833981810160405261010081101561003457600080fd5b810190809190826040019190826040019190826040019190505060405180604001604052808260006002811061006657fe5b602002015181526020018260016002811061007d57fe5b60200201518152506000808201518160000155602082015181600101559050506040518060400160405280856000600281106100b557fe5b60200201518152602001856001600281106100cc57fe5b60200201518152506004600082015181600001556020820151816001015590505060405180604001604052808360006002811061010557fe5b602002015181526020018360016002811061011c57fe5b60200201518152506002600082015181600001556020820151816001015590505060405180604001604052808460006002811061015557fe5b602002015181526020018460016002811061016c57fe5b60200201518152506006600082015181600001556020820151816001015590505050505050610adf806101a06000396000f3fe608060405234801561001057600080fd5b50600436106100575760003560e01c806364252eb71461005c5780636970a9241461019e578063a56dfe4a146101c3578063b8c9d365146101e8578063e2179b8e1461020d575b600080fd5b61018460048036036101c081101561007357600080fd5b8101908080604001906002806020026040519081016040528092919082600260200280828437600081840152601f19601f820116905080830192505050505050919291929080604001906002806020026040519081016040528092919082600260200280828437600081840152601f19601f820116905080830192505050505050919291929080604001906002806020026040519081016040528092919082600260200280828437600081840152601f19601f82011690508083019250505050505091929192908061010001906008806020026040519081016040528092919082600860200280828437600081840152601f19601f8201169050808301925050505050509192919290505050610232565b604051808215151515815260200191505060405180910390f35b6101a6610867565b604051808381526020018281526020019250505060405180910390f35b6101cb610879565b604051808381526020018281526020019250505060405180910390f35b6101f061088b565b604051808381526020018281526020019250505060405180910390f35b61021561089d565b604051808381526020018281526020019250505060405180910390f35b6000806103858686868660006008811061024857fe5b60200201518760016008811061025a57fe5b60200201518860026008811061026c57fe5b60200201518960036008811061027e57fe5b60200201518a60046008811061029057fe5b60200201518b6005600881106102a257fe5b6020020151604051602001808a600260200280838360005b838110156102d55780820151818401526020810190506102ba565b5050505090500189600260200280838360005b838110156103035780820151818401526020810190506102e8565b5050505090500188600260200280838360005b83811015610331578082015181840152602081019050610316565b5050505090500187815260200186815260200185815260200184815260200183815260200182815260200199505050505050505050506040516020818303038152906040528051906020012060001c6108af565b905061038f610a4c565b6040518060400160405280886000600281106103a757fe5b60200201518152602001886001600281106103be57fe5b602002015181525090506103d0610a4c565b6040518060400160405280886000600281106103e857fe5b60200201518152602001886001600281106103ff57fe5b60200201518152509050610411610a4c565b60405180604001604052808860006002811061042957fe5b602002015181526020018860016002811061044057fe5b60200201518152509050610452610a4c565b60405180604001604052808860006008811061046a57fe5b602002015181526020018860016008811061048157fe5b60200201518152509050610493610a4c565b6040518060400160405280896002600881106104ab57fe5b60200201518152602001896003600881106104c257fe5b602002015181525090506104d4610a4c565b60405180604001604052808a6004600881106104ec57fe5b602002015181526020018a60056008811061050357fe5b6020020151815250905060008960066008811061051c57fe5b6020020151905060008a60076008811061053257fe5b602002015190506105e66105616105528b896108e790919063ffffffff16565b8761098c90919063ffffffff16565b6105d8610597846000604051806040016040529081600082015481526020016001820154815250506108e790919063ffffffff16565b6105ca866002604051806040016040529081600082015481526020016001820154815250506108e790919063ffffffff16565b61098c90919063ffffffff16565b610a2490919063ffffffff16565b610658576040517f08c379a00000000000000000000000000000000000000000000000000000000081526004018080602001828103825260158152602001807f466972737420636f6e646974696f6e206572726f72000000000000000000000081525060200191505060405180910390fd5b6106c16106806106718b8a6108e790919063ffffffff16565b8661098c90919063ffffffff16565b6106b3836002604051806040016040529081600082015481526020016001820154815250506108e790919063ffffffff16565b610a2490919063ffffffff16565b610733576040517f08c379a00000000000000000000000000000000000000000000000000000000081526004018080602001828103825260168152602001807f5365636f6e6420636f6e646974696f6e206572726f720000000000000000000081525060200191505060405180910390fd5b6107e061075b61074c8b8b6108e790919063ffffffff16565b8561098c90919063ffffffff16565b6107d2610791846006604051806040016040529081600082015481526020016001820154815250506108e790919063ffffffff16565b6107c4866004604051806040016040529081600082015481526020016001820154815250506108e790919063ffffffff16565b61098c90919063ffffffff16565b610a2490919063ffffffff16565b610852576040517f08c379a00000000000000000000000000000000000000000000000000000000081526004018080602001828103825260158152602001807f546869726420636f6e646974696f6e206572726f72000000000000000000000081525060200191505060405180910390fd5b60019950505050505050505050949350505050565b60028060000154908060010154905082565b60008060000154908060010154905082565b60068060000154908060010154905082565b60048060000154908060010154905082565b6000807f30644e72e131a029b85045b68181585d2833e84879b9709143e1f593f000000190508083816108de57fe5b06915050919050565b6108ef610a4c565b600182141561090057829050610986565b600282141561091a57610913838461098c565b9050610986565b610922610a66565b83600001518160006003811061093457fe5b60200201818152505083602001518160016003811061094f57fe5b602002018181525050828160026003811061096657fe5b6020020181815250506040826060836007600019fa61098457600080fd5b505b92915050565b610994610a4c565b61099c610a88565b8360000151816000600481106109ae57fe5b6020020181815250508360200151816001600481106109c957fe5b6020020181815250508260000151816002600481106109e457fe5b6020020181815250508260200151816003600481106109ff57fe5b6020020181815250506040826080836006600019fa610a1d57600080fd5b5092915050565b600081600001518360000151148015610a44575081602001518360200151145b905092915050565b604051806040016040528060008152602001600081525090565b6040518060600160405280600390602082028038833980820191505090505090565b604051806080016040528060049060208202803883398082019150509050509056fea265627a7a7231582047a142840bad81e6be6fe8851e481efcdc7fc35a13a963ac1a834d058471b2d764736f6c634300050c0032",
  "source": "pragma solidity ^0.5.0;\r\nimport './alt_bn128.sol';\r\n\r\ncontract ElGamalProofVerifier {\r\n    using alt_bn128 for uint256;\r\n    using alt_bn128 for alt_bn128.G1Point;\r\n\r\n    alt_bn128.G1Point public y;\r\n    alt_bn128.G1Point public g2;\r\n    alt_bn128.G1Point public g;\r\n    alt_bn128.G1Point public h;\r\n    constructor(uint[2] memory _g, uint[2] memory _h, uint[2] memory _g2,uint[2] memory _y) public {\r\n        y = alt_bn128.G1Point(_y[0],_y[1]);\r\n        g = alt_bn128.G1Point(_g[0],_g[1]);\r\n        g2 = alt_bn128.G1Point(_g2[0],_g2[1]);\r\n        h = alt_bn128.G1Point(_h[0],_h[1]);\r\n    }\r\n    function Verify(uint[2] memory _C, uint[2] memory _c1, uint[2] memory _c2, uint[8] memory proof) public returns(bool) {\r\n       uint e = uint(keccak256(abi.encodePacked(_C,_c1, _c2,proof[0],proof[1],proof[2],proof[3],proof[4],proof[5]))).mod();\r\n       alt_bn128.G1Point memory C = alt_bn128.G1Point(_C[0],_C[1]);\r\n       alt_bn128.G1Point memory c1 = alt_bn128.G1Point(_c1[0],_c1[1]);\r\n       alt_bn128.G1Point memory c2 = alt_bn128.G1Point(_c2[0],_c2[1]);\r\n       alt_bn128.G1Point memory a1 = alt_bn128.G1Point(proof[0],proof[1]);\r\n       alt_bn128.G1Point memory a2 = alt_bn128.G1Point(proof[2],proof[3]);\r\n       alt_bn128.G1Point memory a3 = alt_bn128.G1Point(proof[4],proof[5]);\r\n       uint z1 = proof[6];\r\n       uint z2 = proof[7];\r\n       require(g2.mul(z1).add(y.mul(z2)).eq(a1.add(c2.mul(e))),\"First condition error\");\r\n       require(g2.mul(z2).eq(a2.add(c1.mul(e))),\"Second condition error\");\r\n       require(g.mul(z1).add(h.mul(z2)).eq(a3.add(C.mul(e))),\"Third condition error\");\r\n       return true;\r\n    }\r\n}",
  "sourcePath": "/media/hisham/Data/Coding/PeriodicAuction/contracts/ElGamalProofVerifier.sol",
  "compiler": {
    "name": "solc",
    "version": "0.5.12+commit.7709ece9.Emscripten.clang"
  },
  "schemaVersion": "3.0.20",
  "updatedAt": "2019-12-30T21:30:25.789Z",
  "devdoc": {
    "methods": {}
  },
  "userdoc": {
    "methods": {}
  }
}