{
  "contractName": "PublicParameters",
  "abi": [
    {
      "inputs": [],
      "payable": false,
      "stateMutability": "nonpayable",
      "type": "constructor"
    },
    {
      "constant": true,
      "inputs": [
        {
          "internalType": "uint256",
          "name": "",
          "type": "uint256"
        }
      ],
      "name": "baseG",
      "outputs": [
        {
          "internalType": "uint256",
          "name": "",
          "type": "uint256"
        }
      ],
      "payable": false,
      "stateMutability": "view",
      "type": "function"
    },
    {
      "constant": true,
      "inputs": [
        {
          "internalType": "uint256",
          "name": "",
          "type": "uint256"
        }
      ],
      "name": "baseH",
      "outputs": [
        {
          "internalType": "uint256",
          "name": "",
          "type": "uint256"
        }
      ],
      "payable": false,
      "stateMutability": "view",
      "type": "function"
    },
    {
      "constant": true,
      "inputs": [
        {
          "internalType": "uint256",
          "name": "",
          "type": "uint256"
        }
      ],
      "name": "gVector",
      "outputs": [
        {
          "internalType": "uint256",
          "name": "",
          "type": "uint256"
        }
      ],
      "payable": false,
      "stateMutability": "view",
      "type": "function"
    },
    {
      "constant": true,
      "inputs": [
        {
          "internalType": "uint256",
          "name": "",
          "type": "uint256"
        }
      ],
      "name": "hVector",
      "outputs": [
        {
          "internalType": "uint256",
          "name": "",
          "type": "uint256"
        }
      ],
      "payable": false,
      "stateMutability": "view",
      "type": "function"
    },
    {
      "constant": true,
      "inputs": [],
      "name": "lastGcreated",
      "outputs": [
        {
          "internalType": "uint256",
          "name": "",
          "type": "uint256"
        }
      ],
      "payable": false,
      "stateMutability": "view",
      "type": "function"
    },
    {
      "constant": true,
      "inputs": [],
      "name": "lastHcreated",
      "outputs": [
        {
          "internalType": "uint256",
          "name": "",
          "type": "uint256"
        }
      ],
      "payable": false,
      "stateMutability": "view",
      "type": "function"
    },
    {
      "constant": true,
      "inputs": [],
      "name": "m",
      "outputs": [
        {
          "internalType": "uint256",
          "name": "",
          "type": "uint256"
        }
      ],
      "payable": false,
      "stateMutability": "view",
      "type": "function"
    },
    {
      "constant": true,
      "inputs": [],
      "name": "n",
      "outputs": [
        {
          "internalType": "uint256",
          "name": "",
          "type": "uint256"
        }
      ],
      "payable": false,
      "stateMutability": "view",
      "type": "function"
    },
    {
      "constant": true,
      "inputs": [
        {
          "internalType": "uint256",
          "name": "",
          "type": "uint256"
        }
      ],
      "name": "signatureGenerator",
      "outputs": [
        {
          "internalType": "uint256",
          "name": "",
          "type": "uint256"
        }
      ],
      "payable": false,
      "stateMutability": "view",
      "type": "function"
    },
    {
      "constant": false,
      "inputs": [],
      "name": "createGVector",
      "outputs": [
        {
          "internalType": "bool",
          "name": "success",
          "type": "bool"
        }
      ],
      "payable": false,
      "stateMutability": "nonpayable",
      "type": "function"
    },
    {
      "constant": false,
      "inputs": [],
      "name": "createHVector",
      "outputs": [
        {
          "internalType": "bool",
          "name": "success",
          "type": "bool"
        }
      ],
      "payable": false,
      "stateMutability": "nonpayable",
      "type": "function"
    },
    {
      "constant": true,
      "inputs": [],
      "name": "peddersenBaseG",
      "outputs": [
        {
          "internalType": "uint256[2]",
          "name": "point",
          "type": "uint256[2]"
        }
      ],
      "payable": false,
      "stateMutability": "view",
      "type": "function"
    },
    {
      "constant": true,
      "inputs": [],
      "name": "peddersenBaseH",
      "outputs": [
        {
          "internalType": "uint256[2]",
          "name": "point",
          "type": "uint256[2]"
        }
      ],
      "payable": false,
      "stateMutability": "view",
      "type": "function"
    },
    {
      "constant": true,
      "inputs": [
        {
          "internalType": "uint256",
          "name": "index",
          "type": "uint256"
        }
      ],
      "name": "getGVectorComponent",
      "outputs": [
        {
          "internalType": "uint256[2]",
          "name": "point",
          "type": "uint256[2]"
        }
      ],
      "payable": false,
      "stateMutability": "view",
      "type": "function"
    },
    {
      "constant": true,
      "inputs": [
        {
          "internalType": "uint256",
          "name": "index",
          "type": "uint256"
        }
      ],
      "name": "getHVectorComponent",
      "outputs": [
        {
          "internalType": "uint256[2]",
          "name": "point",
          "type": "uint256[2]"
        }
      ],
      "payable": false,
      "stateMutability": "view",
      "type": "function"
    },
    {
      "constant": true,
      "inputs": [],
      "name": "getGVector",
      "outputs": [
        {
          "internalType": "uint256[32]",
          "name": "points",
          "type": "uint256[32]"
        }
      ],
      "payable": false,
      "stateMutability": "view",
      "type": "function"
    },
    {
      "constant": true,
      "inputs": [],
      "name": "getHVector",
      "outputs": [
        {
          "internalType": "uint256[32]",
          "name": "points",
          "type": "uint256[32]"
        }
      ],
      "payable": false,
      "stateMutability": "view",
      "type": "function"
    },
    {
      "constant": true,
      "inputs": [],
      "name": "generator",
      "outputs": [
        {
          "components": [
            {
              "internalType": "uint256",
              "name": "X",
              "type": "uint256"
            },
            {
              "internalType": "uint256",
              "name": "Y",
              "type": "uint256"
            }
          ],
          "internalType": "struct alt_bn128.G1Point",
          "name": "p",
          "type": "tuple"
        }
      ],
      "payable": false,
      "stateMutability": "view",
      "type": "function"
    },
    {
      "constant": true,
      "inputs": [],
      "name": "G",
      "outputs": [
        {
          "components": [
            {
              "internalType": "uint256",
              "name": "X",
              "type": "uint256"
            },
            {
              "internalType": "uint256",
              "name": "Y",
              "type": "uint256"
            }
          ],
          "internalType": "struct alt_bn128.G1Point",
          "name": "p",
          "type": "tuple"
        }
      ],
      "payable": false,
      "stateMutability": "view",
      "type": "function"
    },
    {
      "constant": true,
      "inputs": [],
      "name": "H",
      "outputs": [
        {
          "components": [
            {
              "internalType": "uint256",
              "name": "X",
              "type": "uint256"
            },
            {
              "internalType": "uint256",
              "name": "Y",
              "type": "uint256"
            }
          ],
          "internalType": "struct alt_bn128.G1Point",
          "name": "p",
          "type": "tuple"
        }
      ],
      "payable": false,
      "stateMutability": "view",
      "type": "function"
    },
    {
      "constant": true,
      "inputs": [],
      "name": "gs",
      "outputs": [
        {
          "components": [
            {
              "internalType": "uint256",
              "name": "X",
              "type": "uint256"
            },
            {
              "internalType": "uint256",
              "name": "Y",
              "type": "uint256"
            }
          ],
          "internalType": "struct alt_bn128.G1Point[16]",
          "name": "points",
          "type": "tuple[16]"
        }
      ],
      "payable": false,
      "stateMutability": "view",
      "type": "function"
    },
    {
      "constant": true,
      "inputs": [],
      "name": "hs",
      "outputs": [
        {
          "components": [
            {
              "internalType": "uint256",
              "name": "X",
              "type": "uint256"
            },
            {
              "internalType": "uint256",
              "name": "Y",
              "type": "uint256"
            }
          ],
          "internalType": "struct alt_bn128.G1Point[16]",
          "name": "points",
          "type": "tuple[16]"
        }
      ],
      "payable": false,
      "stateMutability": "view",
      "type": "function"
    }
  ],
  "bytecode": "0x6080604052600060465560006047553480156200001b57600080fd5b506200002c6200006860201b60201c565b60029060026200003e92919062000303565b506200004f620000d560201b60201c565b60049060026200006192919062000303565b50620004ad565b6200007262000348565b6000604051620000829062000474565b60405180910390209050620000966200036a565b620000af8260001c6200014260201b62000adb1760201c565b905060405180604001604052808260000151815260200182602001518152509250505090565b620000df62000348565b6000604051620000ef906200048b565b60405180910390209050620001036200036a565b6200011c8260001c6200014260201b62000adb1760201c565b905060405180604001604052808260000151815260200182602001518152509250505090565b6200014c6200036a565b60007f30644e72e131a029b85045b68181585d97816a916871ca8d3c208c16d87cfd47905060008184816200017d57fe5b06905060006001820391506000809050600080600390505b8262000204576001850194508580620001aa57fe5b85860991508580620001b857fe5b85830991508580620001c657fe5b8183089150620001ec8260046001890181620001de57fe5b04886200022660201b60201c565b9350818680620001f857fe5b85860914925062000195565b6040518060400160405280868152602001858152509650505050505050919050565b60006200023262000384565b6200023c620003a6565b6020826000600681106200024c57fe5b6020020181815250506020826001600681106200026557fe5b6020020181815250506020826002600681106200027e57fe5b60200201818152505085826003600681106200029657fe5b6020020181815250508482600460068110620002ae57fe5b6020020181815250508382600560068110620002c657fe5b60200201818152505060208160c0846005600019fa620002e557600080fd5b80600060018110620002f357fe5b6020020151925050509392505050565b826002810192821562000335579160200282015b828111156200033457825182559160200191906001019062000317565b5b509050620003449190620003c8565b5090565b6040518060400160405280600290602082028038833980820191505090505090565b604051806040016040528060008152602001600081525090565b6040518060c00160405280600690602082028038833980820191505090505090565b6040518060200160405280600190602082028038833980820191505090505090565b620003ed91905b80821115620003e9576000816000905550600101620003cf565b5090565b90565b6000620003ff600183620004a2565b91507f47000000000000000000000000000000000000000000000000000000000000006000830152600182019050919050565b600062000441600183620004a2565b91507f48000000000000000000000000000000000000000000000000000000000000006000830152600182019050919050565b60006200048182620003f0565b9150819050919050565b6000620004988262000432565b9150819050919050565b600081905092915050565b61147480620004bd6000396000f3fe608060405234801561001057600080fd5b50600436106101415760003560e01c80635a2ee019116100b85780638dd2a30b1161007c5780638dd2a30b1461038057806393fb7ff31461039e578063bdb1482e146103ce578063e161f94d146103ec578063e1db76d81461041c578063ffe237f01461043a57610141565b80635a2ee019146102ea5780636a5ff853146103085780636fecb6231461032657806370a5d861146103445780637afa1eed1461036257610141565b80631ab5d6091161010a5780631ab5d6091461022457806327cb3637146102425780632e52d6061461026057806334335b631461027e578063483767f01461029c57806356e2736c146102ba57610141565b8062e71aaf14610146578063058260ec1461016457806309440a3014610194578063095c2405146101c45780630c00f8a0146101f4575b600080fd5b61014e610458565b60405161015b9190611285565b60405180910390f35b61017e60048036036101799190810190610f7d565b6104ab565b60405161018b919061130e565b60405180910390f35b6101ae60048036036101a99190810190610f7d565b6104c3565b6040516101bb919061130e565b60405180910390f35b6101de60048036036101d99190810190610f7d565b6104db565b6040516101eb919061130e565b60405180910390f35b61020e60048036036102099190810190610f7d565b6104f3565b60405161021b919061130e565b60405180910390f35b61022c61050b565b604051610239919061130e565b60405180910390f35b61024a610511565b60405161025791906112a1565b60405180910390f35b61026861056b565b604051610275919061130e565b60405180910390f35b610286610570565b60405161029391906112d8565b60405180910390f35b6102a4610633565b6040516102b191906112bc565b60405180910390f35b6102d460048036036102cf9190810190610f7d565b61067e565b6040516102e1919061130e565b60405180910390f35b6102f2610696565b6040516102ff919061130e565b60405180910390f35b61031061069b565b60405161031d91906112a1565b60405180910390f35b61032e6106f5565b60405161033b91906112f3565b60405180910390f35b61034c610747565b60405161035991906112f3565b60405180910390f35b61036a61079a565b60405161037791906112f3565b60405180910390f35b6103886107ed565b60405161039591906112d8565b60405180910390f35b6103b860048036036103b39190810190610f7d565b6108b0565b6040516103c591906112a1565b60405180910390f35b6103d6610934565b6040516103e3919061130e565b60405180910390f35b61040660048036036104019190810190610f7d565b61093a565b60405161041391906112a1565b60405180910390f35b6104246109be565b6040516104319190611285565b60405180910390f35b610442610a11565b60405161044f91906112bc565b60405180910390f35b610460610e7d565b6104a6600660208060200260405190810160405280929190826020801561049c576020028201915b815481526020019060010190808311610488575b5050505050610a5c565b905090565b600081600281106104b857fe5b016000915090505481565b600281600281106104d057fe5b016000915090505481565b600481600281106104e857fe5b016000915090505481565b6006816020811061050057fe5b016000915090505481565b60465481565b610519610eab565b60006040516105279061124e565b60405180910390209050610539610ecd565b6105458260001c610adb565b905060405180604001604052808260000151815260200182602001518152509250505090565b600481565b600060106047541061058157600080fd5b60006047546010039050600481111561059957600490505b6105a1610eab565b600060475490505b826047540181101561061e576105be816108b0565b9150816000600281106105cd57fe5b6020020151602660028302602081106105e257fe5b0181905550816001600281106105f457fe5b60200201516026600160028402016020811061060c57fe5b018190555080806001019150506105a9565b50816047540160478190555060019250505090565b61063b610ee7565b6026602080602002604051908101604052809291908260208015610674576020028201915b815481526020019060010190808311610660575b5050505050905090565b6026816020811061068b57fe5b016000915090505481565b601081565b6106a3610eab565b60006040516106b190611217565b604051809103902090506106c3610ecd565b6106cf8260001c610adb565b905060405180604001604052808260000151815260200182602001518152509250505090565b6106fd610ecd565b61074260028080602002604051908101604052809291908260028015610738576020028201915b815481526020019060010190808311610724575b5050505050610bad565b905090565b61074f610ecd565b610795600460028060200260405190810160405280929190826002801561078b576020028201915b815481526020019060010190808311610777575b5050505050610bad565b905090565b6107a2610ecd565b6107e860006002806020026040519081016040528092919082600280156107de576020028201915b8154815260200190600101908083116107ca575b5050505050610bad565b905090565b60006010604654106107fe57600080fd5b60006046546010039050600481111561081657600490505b61081e610eab565b600060465490505b826046540181101561089b5761083b8161093a565b91508160006002811061084a57fe5b60200201516006600283026020811061085f57fe5b01819055508160016002811061087157fe5b60200201516006600160028402016020811061088957fe5b01819055508080600101915050610826565b50816046540160468190555060019250505090565b6108b8610eab565b601082106108c557600080fd5b60006108d083610bf3565b6040516020016108e09190611263565b604051602081830303815290604052805190602001209050610900610ecd565b61090c8260001c610adb565b9050604051806040016040528082600001518152602001826020015181525092505050919050565b60475481565b610942610eab565b6010821061094f57600080fd5b600061095a83610bf3565b60405160200161096a919061122c565b60405160208183030381529060405280519060200120905061098a610ecd565b6109968260001c610adb565b9050604051806040016040528082600001518152602001826020015181525092505050919050565b6109c6610e7d565b610a0c6026602080602002604051908101604052809291908260208015610a02576020028201915b8154815260200190600101908083116109ee575b5050505050610a5c565b905090565b610a19610ee7565b6006602080602002604051908101604052809291908260208015610a52576020028201915b815481526020019060010190808311610a3e575b5050505050905090565b610a64610e7d565b60008090505b6010811015610ad2576040518060400160405280848360020260208110610a8d57fe5b60200201518152602001846001846002020160208110610aa957fe5b6020020151815250828260108110610abd57fe5b60200201819052508080600101915050610a6a565b50809050919050565b610ae3610ecd565b60007f30644e72e131a029b85045b68181585d97816a916871ca8d3c208c16d87cfd4790506000818481610b1357fe5b06905060006001820391506000809050600080600390505b82610b8b576001850194508580610b3e57fe5b85860991508580610b4b57fe5b85830991508580610b5857fe5b8183089150610b758260046001890181610b6e57fe5b0488610dac565b9350818680610b8057fe5b858609149250610b2b565b6040518060400160405280868152602001858152509650505050505050919050565b610bb5610ecd565b604051806040016040528083600060028110610bcd57fe5b6020020151815260200183600160028110610be457fe5b60200201518152509050919050565b60606000821415610c3b576040518060400160405280600181526020017f30000000000000000000000000000000000000000000000000000000000000008152509050610da7565b6000606490506060816040519080825280601f01601f191660200182016040528015610c765781602001600182028038833980820191505090505b509050600080905060008590505b60008114610cf6576000600a8281610c9857fe5b069050600a8281610ca557fe5b0491508060300160f81b848480600101955081518110610cc157fe5b60200101907effffffffffffffffffffffffffffffffffffffffffffffffffffffffffffff1916908160001a90535050610c84565b816040519080825280601f01601f191660200182016040528015610d295781602001600182028038833980820191505090505b50945060008090505b82811015610d9e578381600185030381518110610d4b57fe5b602001015160f81c60f81b868281518110610d6257fe5b60200101907effffffffffffffffffffffffffffffffffffffffffffffffffffffffffffff1916908160001a9053508080600101915050610d32565b50849450505050505b919050565b6000610db6610f0a565b610dbe610f2c565b602082600060068110610dcd57fe5b602002018181525050602082600160068110610de557fe5b602002018181525050602082600260068110610dfd57fe5b6020020181815250508582600360068110610e1457fe5b6020020181815250508482600460068110610e2b57fe5b6020020181815250508382600560068110610e4257fe5b60200201818152505060208160c0846005600019fa610e6057600080fd5b80600060018110610e6d57fe5b6020020151925050509392505050565b6040518061020001604052806010905b610e95610f4e565b815260200190600190039081610e8d5790505090565b6040518060400160405280600290602082028038833980820191505090505090565b604051806040016040528060008152602001600081525090565b604051806104000160405280602090602082028038833980820191505090505090565b6040518060c00160405280600690602082028038833980820191505090505090565b6040518060200160405280600190602082028038833980820191505090505090565b604051806040016040528060008152602001600081525090565b600081359050610f778161141a565b92915050565b600060208284031215610f8f57600080fd5b6000610f9d84828501610f68565b91505092915050565b6000610fb283836111ca565b60408301905092915050565b6000610fca83836111f9565b60208301905092915050565b610fdf81611347565b610fe9818461139a565b9250610ff482611329565b8060005b8381101561102557815161100c8782610fa6565b965061101783611373565b925050600181019050610ff8565b505050505050565b61103681611352565b61104081846113a5565b925061104b82611333565b8060005b8381101561107c5781516110638782610fbe565b965061106e83611380565b92505060018101905061104f565b505050505050565b61108d8161135d565b61109781846113b0565b92506110a28261133d565b8060005b838110156110d35781516110ba8782610fbe565b96506110c58361138d565b9250506001810190506110a6565b505050505050565b6110e4816113d1565b82525050565b60006110f582611368565b6110ff81856113bb565b935061110f8185602086016113e7565b80840191505092915050565b60006111286001836113c6565b91507f47000000000000000000000000000000000000000000000000000000000000006000830152600182019050919050565b60006111686001836113c6565b91507f48000000000000000000000000000000000000000000000000000000000000006000830152600182019050919050565b6040820160008201516111b160008501826111f9565b5060208201516111c460208501826111f9565b50505050565b6040820160008201516111e060008501826111f9565b5060208201516111f360208501826111f9565b50505050565b611202816113dd565b82525050565b611211816113dd565b82525050565b60006112228261111b565b9150819050919050565b60006112378261111b565b915061124382846110ea565b915081905092915050565b60006112598261115b565b9150819050919050565b600061126e8261115b565b915061127a82846110ea565b915081905092915050565b60006104008201905061129b6000830184610fd6565b92915050565b60006040820190506112b6600083018461102d565b92915050565b6000610400820190506112d26000830184611084565b92915050565b60006020820190506112ed60008301846110db565b92915050565b6000604082019050611308600083018461119b565b92915050565b60006020820190506113236000830184611208565b92915050565b6000819050919050565b6000819050919050565b6000819050919050565b600060109050919050565b600060029050919050565b600060209050919050565b600081519050919050565b6000602082019050919050565b6000602082019050919050565b6000602082019050919050565b600081905092915050565b600081905092915050565b600081905092915050565b600081905092915050565b600081905092915050565b60008115159050919050565b6000819050919050565b60005b838110156114055780820151818401526020810190506113ea565b83811115611414576000848401525b50505050565b611423816113dd565b811461142e57600080fd5b5056fea365627a7a723158200216e2dccb54c3658a2b1c0d40f273b09602adf96706bc46c8a71bb64f8842886c6578706572696d656e74616cf564736f6c634300050c0040",
  "source": "pragma solidity ^0.5.0;\r\npragma experimental ABIEncoderV2;\r\nimport {alt_bn128} from \"./alt_bn128.sol\";\r\n\r\ncontract PublicParameters {\r\n\r\n    using alt_bn128 for uint256;\r\n    using alt_bn128 for alt_bn128.G1Point;\r\n\r\n    uint256 public constant m = 16;\r\n    uint256 public constant n = 4;\r\n\r\n    uint256[2] public signatureGenerator;\r\n    uint256[2] public baseG;\r\n    uint256[2] public baseH;\r\n    uint256[m*2] public gVector;\r\n    uint256[m*2] public hVector;\r\n    \r\n    uint256 public lastGcreated = 0;\r\n    uint256 public lastHcreated = 0;\r\n\r\n    constructor() public {\r\n        baseG = peddersenBaseG();\r\n        baseH = peddersenBaseH();\r\n    }\r\n\r\n    function createGVector() public returns (bool success) {\r\n        require(lastGcreated < m);\r\n        uint256 maxToCreate = m - lastGcreated;\r\n        if (maxToCreate > n) {\r\n            maxToCreate = n;\r\n        }\r\n        uint256[2] memory reusablePoints;\r\n        for (uint256 i = lastGcreated; i < lastGcreated+maxToCreate; i++) {\r\n            reusablePoints = getGVectorComponent(i);\r\n            gVector[i*2] = reusablePoints[0];\r\n            gVector[i*2 + 1] = reusablePoints[1];\r\n        }\r\n        lastGcreated = lastGcreated+maxToCreate;\r\n        return true;\r\n    }\r\n\r\n    function createHVector() public returns (bool success) {\r\n        require(lastHcreated < m);\r\n        uint256 maxToCreate = m - lastHcreated;\r\n        if (maxToCreate > n) {\r\n            maxToCreate = n;\r\n        }\r\n        uint256[2] memory reusablePoints;\r\n        for (uint256 i = lastHcreated; i < lastHcreated+maxToCreate; i++) {\r\n            reusablePoints = getHVectorComponent(i);\r\n            hVector[i*2] = reusablePoints[0];\r\n            hVector[i*2 + 1] = reusablePoints[1];\r\n        }\r\n        lastHcreated = lastHcreated+maxToCreate;\r\n        return true;\r\n    }\r\n\r\n    function peddersenBaseG() public view returns (uint256[2] memory point) {\r\n        bytes32 h = keccak256(\"G\");\r\n        alt_bn128.G1Point memory g1p = alt_bn128.uintToCurvePoint(uint256(h));\r\n        return [g1p.X, g1p.Y];\r\n    }\r\n    \r\n    function peddersenBaseH() public view returns (uint256[2] memory point) {\r\n        bytes32 h = keccak256(\"H\");\r\n        alt_bn128.G1Point memory g1p = alt_bn128.uintToCurvePoint(uint256(h));\r\n        return [g1p.X, g1p.Y];\r\n    }\r\n\r\n    function getGVectorComponent(uint256 index) public view returns (uint256[2] memory point) {\r\n        require(index < m);\r\n        bytes32 h = keccak256(abi.encodePacked(\"G\", index.uintToBytes()));\r\n        alt_bn128.G1Point memory g1p = alt_bn128.uintToCurvePoint(uint256(h));\r\n        return [g1p.X, g1p.Y];\r\n    }\r\n\r\n    function getHVectorComponent(uint256 index) public view returns (uint256[2] memory point) {\r\n        require(index < m);\r\n        bytes32 h = keccak256(abi.encodePacked(\"H\", index.uintToBytes()));\r\n        alt_bn128.G1Point memory g1p = alt_bn128.uintToCurvePoint(uint256(h));\r\n        return [g1p.X, g1p.Y];\r\n    }\r\n    \r\n    function getGVector() public view returns (uint256[2*m] memory points) {\r\n        return gVector;\r\n    }\r\n    \r\n    function getHVector() public view returns (uint256[2*m] memory points) {\r\n        return hVector;\r\n    }\r\n\r\n    function generator() public view returns (alt_bn128.G1Point memory p) {\r\n        return assemblePoint(signatureGenerator);\r\n    }\r\n\r\n    function G() public view returns (alt_bn128.G1Point memory p) {\r\n        return assemblePoint(baseG);\r\n    }\r\n\r\n    function H() public view returns (alt_bn128.G1Point memory p) {\r\n        return assemblePoint(baseH);\r\n    }\r\n\r\n    function gs() public view returns(alt_bn128.G1Point[m] memory points){\r\n        return assemblePointsFromEncodings(gVector);\r\n    }\r\n\r\n    function hs() public view returns(alt_bn128.G1Point[m] memory points){\r\n        return assemblePointsFromEncodings(hVector);\r\n    }\r\n\r\n    function assemblePointsFromEncodings(uint256[m*2] memory _pointsEncoding) internal pure returns(alt_bn128.G1Point[m] memory points) {\r\n        for (uint256 i = 0; i < m; i++) {\r\n            points[i] = alt_bn128.G1Point(_pointsEncoding[2*i], _pointsEncoding[2*i + 1]);\r\n        }\r\n        return points;\r\n    }\r\n\r\n    function assemblePoint(uint256[2] memory _encoding) internal pure returns(alt_bn128.G1Point memory point) {\r\n        return alt_bn128.G1Point(_encoding[0], _encoding[1]);\r\n    }\r\n}",
  "sourcePath": "/media/hisham/Data/Coding/PeriodicAuction/contracts/PublicParameters.sol",
  "compiler": {
    "name": "solc",
    "version": "0.5.12+commit.7709ece9.Emscripten.clang"
  },
  "schemaVersion": "3.0.20",
  "updatedAt": "2019-12-30T21:30:25.798Z",
  "devdoc": {
    "methods": {}
  },
  "userdoc": {
    "methods": {}
  }
}