{
  "contractName": "RangeProofVerifier",
  "abi": [
    {
      "inputs": [
        {
          "internalType": "address",
          "name": "_publicParameters",
          "type": "address"
        },
        {
          "internalType": "address",
          "name": "_ipVerifier",
          "type": "address"
        }
      ],
      "payable": false,
      "stateMutability": "nonpayable",
      "type": "constructor"
    },
    {
      "constant": true,
      "inputs": [],
      "name": "ipVerifier",
      "outputs": [
        {
          "internalType": "contract EfficientInnerProductVerifier",
          "name": "",
          "type": "address"
        }
      ],
      "payable": false,
      "stateMutability": "view",
      "type": "function"
    },
    {
      "constant": true,
      "inputs": [],
      "name": "m",
      "outputs": [
        {
          "internalType": "uint256",
          "name": "",
          "type": "uint256"
        }
      ],
      "payable": false,
      "stateMutability": "view",
      "type": "function"
    },
    {
      "constant": true,
      "inputs": [],
      "name": "n",
      "outputs": [
        {
          "internalType": "uint256",
          "name": "",
          "type": "uint256"
        }
      ],
      "payable": false,
      "stateMutability": "view",
      "type": "function"
    },
    {
      "constant": true,
      "inputs": [],
      "name": "publicParameters",
      "outputs": [
        {
          "internalType": "contract PublicParameters",
          "name": "",
          "type": "address"
        }
      ],
      "payable": false,
      "stateMutability": "view",
      "type": "function"
    },
    {
      "constant": true,
      "inputs": [],
      "name": "val",
      "outputs": [
        {
          "internalType": "bool",
          "name": "",
          "type": "bool"
        }
      ],
      "payable": false,
      "stateMutability": "view",
      "type": "function"
    },
    {
      "constant": false,
      "inputs": [
        {
          "internalType": "uint256[2]",
          "name": "commitment",
          "type": "uint256[2]"
        },
        {
          "internalType": "uint256[29]",
          "name": "proof",
          "type": "uint256[29]"
        }
      ],
      "name": "Verify",
      "outputs": [
        {
          "internalType": "bool",
          "name": "",
          "type": "bool"
        }
      ],
      "payable": false,
      "stateMutability": "nonpayable",
      "type": "function"
    }
  ],
  "bytecode": "0x60806040523480156200001157600080fd5b5060405162002217380380620022178339818101604052620000379190810190620000d8565b81600060016101000a81548173ffffffffffffffffffffffffffffffffffffffff021916908373ffffffffffffffffffffffffffffffffffffffff16021790555080600160006101000a81548173ffffffffffffffffffffffffffffffffffffffff021916908373ffffffffffffffffffffffffffffffffffffffff160217905550505062000167565b600081519050620000d2816200014d565b92915050565b60008060408385031215620000ec57600080fd5b6000620000fc85828601620000c1565b92505060206200010f85828601620000c1565b9150509250929050565b600062000126826200012d565b9050919050565b600073ffffffffffffffffffffffffffffffffffffffff82169050919050565b620001588162000119565b81146200016457600080fd5b50565b6120a080620001776000396000f3fe608060405234801561001057600080fd5b50600436106100625760003560e01c806326ff9c68146100675780632e52d606146100855780632fe6b34d146100a35780633c6bb436146100c1578063566af38c146100df5780635a2ee0191461010f575b600080fd5b61006f61012d565b60405161007c9190611de5565b60405180910390f35b61008d610153565b60405161009a9190611e9f565b60405180910390f35b6100ab610158565b6040516100b89190611e00565b60405180910390f35b6100c961017e565b6040516100d69190611dca565b60405180910390f35b6100f960048036036100f49190810190611a87565b610190565b6040516101069190611dca565b60405180910390f35b61011761054a565b6040516101249190611e9f565b60405180910390f35b600160009054906101000a900473ffffffffffffffffffffffffffffffffffffffff1681565b600481565b600060019054906101000a900473ffffffffffffffffffffffffffffffffffffffff1681565b6000809054906101000a900460ff1681565b600061019a6115a5565b6101a26115fa565b6040518060400160405280866000600281106101ba57fe5b60200201518152602001866001600281106101d157fe5b602002015181525090506040518060400160405280856000601d81106101f357fe5b60200201518152602001856001601d811061020a57fe5b602002015181525082600001819052506040518060400160405280856002601d811061023257fe5b60200201518152602001856003601d811061024957fe5b6020020151815250826020018190525060405180604001604052806040518060400160405280876004601d811061027c57fe5b60200201518152602001876005601d811061029357fe5b602002015181525081526020016040518060400160405280876006601d81106102b857fe5b60200201518152602001876007601d81106102cf57fe5b60200201518152508152508260400181905250836008601d81106102ef57fe5b6020020151826060018181525050836009601d811061030a57fe5b602002015182608001818152505083600a601d811061032557fe5b60200201518260a001818152505061033b611614565b808360c0018190525060405180610100016040528086600d601d811061035d57fe5b6020020151815260200186600e601d811061037457fe5b6020020151815260200186600f601d811061038b57fe5b60200201518152602001866010601d81106103a257fe5b60200201518152602001866011601d81106103b957fe5b60200201518152602001866012601d81106103d057fe5b60200201518152602001866013601d81106103e757fe5b60200201518152602001866014601d81106103fe57fe5b60200201518152508160000181905250604051806101000160405280866015601d811061042757fe5b60200201518152602001866016601d811061043e57fe5b60200201518152602001866017601d811061045557fe5b60200201518152602001866018601d811061046c57fe5b60200201518152602001866019601d811061048357fe5b6020020151815260200186601a601d811061049a57fe5b6020020151815260200186601b601d81106104b157fe5b6020020151815260200186601c601d81106104c857fe5b6020020151815250816020018190525084600b601d81106104e557fe5b602002015181604001818152505084600c601d811061050057fe5b6020020151816060018181525050610518828461054f565b6000806101000a81548160ff0219169083151502179055506000809054906101000a900460ff16935050505092915050565b601081565b60006105596115fa565b600060019054906101000a900473ffffffffffffffffffffffffffffffffffffffff1673ffffffffffffffffffffffffffffffffffffffff16636fecb6236040518163ffffffff1660e01b8152600401604080518083038186803b1580156105c057600080fd5b505afa1580156105d4573d6000803e3d6000fd5b505050506040513d601f19601f820116820180604052506105f89190810190611aed565b90506106026115fa565b600060019054906101000a900473ffffffffffffffffffffffffffffffffffffffff1673ffffffffffffffffffffffffffffffffffffffff166370a5d8616040518163ffffffff1660e01b8152600401604080518083038186803b15801561066957600080fd5b505afa15801561067d573d6000803e3d6000fd5b505050506040513d601f19601f820116820180604052506106a19190810190611aed565b90506106ab611648565b600060019054906101000a900473ffffffffffffffffffffffffffffffffffffffff1673ffffffffffffffffffffffffffffffffffffffff1662e71aaf6040518163ffffffff1660e01b81526004016104006040518083038186803b15801561071357600080fd5b505afa158015610727573d6000803e3d6000fd5b505050506040513d601f19601f8201168201806040525061074b9190810190611a5d565b9050610755611648565b600060019054906101000a900473ffffffffffffffffffffffffffffffffffffffff1673ffffffffffffffffffffffffffffffffffffffff1663e1db76d86040518163ffffffff1660e01b81526004016104006040518083038186803b1580156107be57600080fd5b505afa1580156107d2573d6000803e3d6000fd5b505050506040513d601f19601f820116820180604052506107f69190810190611a5d565b9050610800611676565b610864886000015189602001518960000151600001518a60000151602001518b60200151600001518c602001516020015160405160200161084696959493929190611d5a565b6040516020818303038152906040528051906020012060001c610e95565b81600001818152505061087a8160000151610ecd565b81602001819052506108b8816000015160405160200161089a9190611cb4565b6040516020818303038152906040528051906020012060001c610e95565b8160400181815250506108dc81604001518260400151610f6290919063ffffffff16565b81606001818152505061090081604001518260600151610f6290919063ffffffff16565b8160800181815250506109206109166002610ecd565b8260600151610f9c565b8160a001819052506109c4876040015160006002811061093c57fe5b602002015160000151886040015160006002811061095657fe5b602002015160200151896040015160016002811061097057fe5b6020020151600001518a6040015160016002811061098a57fe5b6020020151602001516040516020016109a69493929190611d0c565b6040516020818303038152906040528051906020012060001c610e95565b8160c0018181525050610a0c6109e7886060015186610fff90919063ffffffff16565b6109fe8960a0015188610fff90919063ffffffff16565b6110a490919063ffffffff16565b8160e00181905250610a8f610a488260800151610a3a601060020a8560800151610f6290919063ffffffff16565b61113c90919063ffffffff16565b610a81610a668460600151856040015161113c90919063ffffffff16565b610a738560200151611181565b610f6290919063ffffffff16565b61113c90919063ffffffff16565b81610100018181525050610b18610ade610aba8360c001518460c00151610f6290919063ffffffff16565b8960400151600160028110610acb57fe5b6020020151610fff90919063ffffffff16565b610b0a8360c001518a60400151600060028110610af757fe5b6020020151610fff90919063ffffffff16565b6110a490919063ffffffff16565b816101200181905250610b4f610b3b82606001518a610fff90919063ffffffff16565b8261012001516110a490919063ffffffff16565b816101200181905250610b87610b7382610100015187610fff90919063ffffffff16565b8261012001516110a490919063ffffffff16565b816101200181905250610bac8160e001518261012001516111ca90919063ffffffff16565b610bbe57600095505050505050610e8f565b610c00876060015188608001518960a00151604051602001610be293929190611ccf565b6040516020818303038152906040528051906020012060001c610e95565b81610140018181525050610c2281610140015186610fff90919063ffffffff16565b816101600181905250610c33611648565b610c5183610c4c610c4785600001516111f2565b610ecd565b6112bc565b9050610c5b611702565b610c7a610c7084602001518560400151610f9c565b8460a0015161132e565b9050610cad610c9a8460c001518b60200151610fff90919063ffffffff16565b8a600001516110a490919063ffffffff16565b836101800181905250610cf4610ce0610cc985604001516113a1565b610cd2886113cd565b610fff90919063ffffffff16565b8461018001516110a490919063ffffffff16565b836101800181905250610d1e610d0a8383611431565b8461018001516110a490919063ffffffff16565b836101800181905250610d5d610d49610d448b6080015189610fff90919063ffffffff16565b6114db565b8461018001516110a490919063ffffffff16565b836101800181905250610d99610d858a60a00151856101600151610fff90919063ffffffff16565b8461018001516110a490919063ffffffff16565b836101800181905250600160009054906101000a900473ffffffffffffffffffffffffffffffffffffffff1673ffffffffffffffffffffffffffffffffffffffff166309dae0608461018001518b60c00151600001518c60c00151602001518d60c00151604001518e60c00151606001518b898b61016001516040518963ffffffff1660e01b8152600401610e35989796959493929190611e1b565b60206040518083038186803b158015610e4d57600080fd5b505afa158015610e61573d6000803e3d6000fd5b505050506040513d601f19601f82011682018060405250610e859190810190611ac4565b9750505050505050505b92915050565b6000807f30644e72e131a029b85045b68181585d2833e84879b9709143e1f593f00000019050808381610ec457fe5b06915050919050565b610ed5611702565b600181600060108110610ee457fe5b6020020181815250508181600160108110610efb57fe5b6020020181815250506000600290505b6010811015610f5c57610f3a83836001840360108110610f2757fe5b6020020151610f6290919063ffffffff16565b828260108110610f4657fe5b6020020181815250508080600101915050610f0b565b50919050565b6000807f30644e72e131a029b85045b68181585d2833e84879b9709143e1f593f000000190508080610f9057fe5b83850991505092915050565b610fa4611702565b60008090505b6010811015610ff857610fd683858360108110610fc357fe5b6020020151610f6290919063ffffffff16565b828260108110610fe257fe5b6020020181815250508080600101915050610faa565b5092915050565b6110076115fa565b60018214156110185782905061109e565b60028214156110325761102b83846110a4565b905061109e565b61103a611725565b83600001518160006003811061104c57fe5b60200201818152505083602001518160016003811061106757fe5b602002018181525050828160026003811061107e57fe5b6020020181815250506040826060836007600019fa61109c57600080fd5b505b92915050565b6110ac6115fa565b6110b4611747565b8360000151816000600481106110c657fe5b6020020181815250508360200151816001600481106110e157fe5b6020020181815250508260000151816002600481106110fc57fe5b60200201818152505082602001518160036004811061111757fe5b6020020181815250506040826080836006600019fa61113557600080fd5b5092915050565b6000807f30644e72e131a029b85045b68181585d2833e84879b9709143e1f593f0000001905082841015611174578383820301611178565b8284035b91505092915050565b600080600090505b60108110156111c4576111b58382601081106111a157fe5b60200201518361156b90919063ffffffff16565b91508080600101915050611189565b50919050565b6000816000015183600001511480156111ea575081602001518360200151145b905092915050565b6000807f30644e72e131a029b85045b68181585d2833e84879b9709143e1f593f0000001905060008390506000811415611231576000925050506112b7565b818111156112465781818161124257fe5b0690505b600080600190506000849050600084905060005b6000821461128f5781838161126b57fe5b0490508384820286038384840286038095508196508297508398505050505061125a565b60008512156112ac578460000387039750505050505050506112b7565b849750505050505050505b919050565b6112c4611648565b60008090505b6010811015611327576113068382601081106112e257fe5b60200201518583601081106112f357fe5b6020020151610fff90919063ffffffff16565b82826010811061131257fe5b602002018190525080806001019150506112ca565b5092915050565b611336611702565b60008090505b601081101561139a5761137883826010811061135457fe5b602002015185836010811061136557fe5b602002015161156b90919063ffffffff16565b82826010811061138457fe5b602002018181525050808060010191505061133c565b5092915050565b6000817f30644e72e131a029b85045b68181585d2833e84879b9709143e1f593f0000001039050919050565b6113d56115fa565b816000601081106113e257fe5b602002015190506000600190505b601081101561142b5761141c83826010811061140857fe5b6020020151836110a490919063ffffffff16565b915080806001019150506113f0565b50919050565b6114396115fa565b61146e8260006010811061144957fe5b60200201518460006010811061145b57fe5b6020020151610fff90919063ffffffff16565b90506000600190505b60108110156114d4576114c56114b684836010811061149257fe5b60200201518684601081106114a357fe5b6020020151610fff90919063ffffffff16565b836110a490919063ffffffff16565b91508080600101915050611477565b5092915050565b6114e36115fa565b600082600001511480156114fb575060008260200151145b1561151e5760405180604001604052806000815260200160008152509050611566565b60007f30644e72e131a029b85045b68181585d97816a916871ca8d3c208c16d87cfd479050604051806040016040528084600001518152602001846020015183038152509150505b919050565b6000807f30644e72e131a029b85045b68181585d2833e84879b9709143e1f593f00000019050808061159957fe5b83850891505092915050565b6040518060e001604052806115b8611769565b81526020016115c5611769565b81526020016115d2611783565b81526020016000815260200160008152602001600081526020016115f46117b0565b81525090565b604051806040016040528060008152602001600081525090565b60405180608001604052806116276117e4565b81526020016116346117e4565b815260200160008152602001600081525090565b6040518061020001604052806010905b611660611769565b8152602001906001900390816116585790505090565b604051806101a0016040528060008152602001611691611807565b81526020016000815260200160008152602001600081526020016116b3611807565b8152602001600081526020016116c7611769565b8152602001600081526020016116db611769565b8152602001600081526020016116ef611769565b81526020016116fc611769565b81525090565b604051806102000160405280601090602082028038833980820191505090505090565b6040518060600160405280600390602082028038833980820191505090505090565b6040518060800160405280600490602082028038833980820191505090505090565b604051806040016040528060008152602001600081525090565b60405180604001604052806002905b61179a611769565b8152602001906001900390816117925790505090565b60405180608001604052806117c36117e4565b81526020016117d06117e4565b815260200160008152602001600081525090565b604051806101000160405280600890602082028038833980820191505090505090565b604051806102000160405280601090602082028038833980820191505090505090565b600082601f83011261183b57600080fd5b601061184e61184982611ee7565b611eba565b9150818385604084028201111561186457600080fd5b60005b83811015611894578161187a888261199b565b845260208401935060408301925050600181019050611867565b5050505092915050565b600082601f8301126118af57600080fd5b601d6118c26118bd82611f09565b611eba565b915081838560208402820111156118d857600080fd5b60005b8381101561190857816118ee8882611a33565b8452602084019350602083019250506001810190506118db565b5050505092915050565b600082601f83011261192357600080fd5b600261193661193182611f2b565b611eba565b9150818385602084028201111561194c57600080fd5b60005b8381101561197c57816119628882611a33565b84526020840193506020830192505060018101905061194f565b5050505092915050565b6000815190506119958161202f565b92915050565b6000604082840312156119ad57600080fd5b6119b76040611eba565b905060006119c784828501611a48565b60008301525060206119db84828501611a48565b60208301525092915050565b6000604082840312156119f957600080fd5b611a036040611eba565b90506000611a1384828501611a48565b6000830152506020611a2784828501611a48565b60208301525092915050565b600081359050611a4281612046565b92915050565b600081519050611a5781612046565b92915050565b60006104008284031215611a7057600080fd5b6000611a7e8482850161182a565b91505092915050565b6000806103e08385031215611a9b57600080fd5b6000611aa985828601611912565b9250506040611aba8582860161189e565b9150509250929050565b600060208284031215611ad657600080fd5b6000611ae484828501611986565b91505092915050565b600060408284031215611aff57600080fd5b6000611b0d848285016119e7565b91505092915050565b6000611b228383611c21565b60408301905092915050565b6000611b3a8383611c7f565b60208301905092915050565b611b4f81611f61565b611b598184611f91565b9250611b6482611f4d565b8060005b83811015611b95578151611b7c8782611b16565b9650611b8783611f77565b925050600181019050611b68565b505050505050565b611ba681611f6c565b611bb08184611f9c565b9250611bbb82611f57565b8060005b83811015611bec578151611bd38782611b2e565b9650611bde83611f84565b925050600181019050611bbf565b505050505050565b611bfd81611fa7565b82525050565b611c0c81611fdd565b82525050565b611c1b81612001565b82525050565b604082016000820151611c376000850182611c7f565b506020820151611c4a6020850182611c7f565b50505050565b604082016000820151611c666000850182611c7f565b506020820151611c796020850182611c7f565b50505050565b611c8881611fd3565b82525050565b611c9781611fd3565b82525050565b611cae611ca982611fd3565b612025565b82525050565b6000611cc08284611c9d565b60208201915081905092915050565b6000611cdb8286611c9d565b602082019150611ceb8285611c9d565b602082019150611cfb8284611c9d565b602082019150819050949350505050565b6000611d188287611c9d565b602082019150611d288286611c9d565b602082019150611d388285611c9d565b602082019150611d488284611c9d565b60208201915081905095945050505050565b6000611d668289611c9d565b602082019150611d768288611c9d565b602082019150611d868287611c9d565b602082019150611d968286611c9d565b602082019150611da68285611c9d565b602082019150611db68284611c9d565b602082019150819050979650505050505050565b6000602082019050611ddf6000830184611bf4565b92915050565b6000602082019050611dfa6000830184611c03565b92915050565b6000602082019050611e156000830184611c12565b92915050565b6000610ac082019050611e31600083018b611c50565b611e3e604083018a611b9d565b611e4c610140830189611b9d565b611e5a610240830188611c8e565b611e68610260830187611c8e565b611e76610280830186611b46565b611e84610680830185611b46565b611e92610a80830184611c50565b9998505050505050505050565b6000602082019050611eb46000830184611c8e565b92915050565b6000604051905081810181811067ffffffffffffffff82111715611edd57600080fd5b8060405250919050565b600067ffffffffffffffff821115611efe57600080fd5b602082029050919050565b600067ffffffffffffffff821115611f2057600080fd5b602082029050919050565b600067ffffffffffffffff821115611f4257600080fd5b602082029050919050565b6000819050919050565b6000819050919050565b600060109050919050565b600060089050919050565b6000602082019050919050565b6000602082019050919050565b600081905092915050565b600081905092915050565b60008115159050919050565b600073ffffffffffffffffffffffffffffffffffffffff82169050919050565b6000819050919050565b6000611fe882611fef565b9050919050565b6000611ffa82611fb3565b9050919050565b600061200c82612013565b9050919050565b600061201e82611fb3565b9050919050565b6000819050919050565b61203881611fa7565b811461204357600080fd5b50565b61204f81611fd3565b811461205a57600080fd5b5056fea365627a7a72315820a37c7c6a22b4fdf21b0c958c669f2cc18093f7448de789e6216955d069e59ced6c6578706572696d656e74616cf564736f6c634300050c0040",
  "source": "pragma solidity ^0.5.0;\r\npragma experimental ABIEncoderV2;\r\nimport \"./alt_bn128.sol\";\r\nimport {EfficientInnerProductVerifier} from \"./EfficientInnerProductVerifier.sol\";\r\nimport {PublicParameters} from \"./PublicParameters.sol\";\r\n\r\ncontract RangeProofVerifier {\r\n    bool public val;\r\n    using alt_bn128 for uint256;\r\n    using alt_bn128 for alt_bn128.G1Point;\r\n\r\n    uint256 public constant m = 16;\r\n    uint256 public constant n = 4;\r\n\r\n    PublicParameters public publicParameters;\r\n    EfficientInnerProductVerifier public ipVerifier;\r\n\r\n    constructor (address _publicParameters, address _ipVerifier) public {\r\n        publicParameters = PublicParameters(_publicParameters);\r\n        ipVerifier = EfficientInnerProductVerifier(_ipVerifier);\r\n    }\r\n\r\n    /*function verify(\r\n        uint256[10] memory coords, // [input_x, input_y, A_x, A_y, S_x, S_y, commits[0]_x, commits[0]_y, commits[1]_x, commits[1]_y]\r\n        uint256[5] memory scalars, // [tauX, mu, t, a, b]\r\n        uint256[2*n] memory ls_coords, // 2 * n\r\n        uint256[2*n] memory rs_coords  // 2 * n\r\n    ) public\r\n    returns (bool) {\r\n        RangeProof memory rangeProof;\r\n        alt_bn128.G1Point memory input = alt_bn128.G1Point(coords[0], coords[1]);\r\n        rangeProof.A = alt_bn128.G1Point(coords[2], coords[3]);\r\n        rangeProof.S = alt_bn128.G1Point(coords[4], coords[5]);\r\n        rangeProof.commits = [alt_bn128.G1Point(coords[6], coords[7]), alt_bn128.G1Point(coords[8], coords[9])];\r\n        rangeProof.tauX = scalars[0];\r\n        rangeProof.mu = scalars[1];\r\n        rangeProof.t = scalars[2];\r\n        InnerProductProof memory ipProof;\r\n        rangeProof.ipProof = ipProof;\r\n        ipProof.ls = ls_coords;\r\n        ipProof.rs = rs_coords;\r\n        ipProof.a = scalars[3];\r\n        ipProof.b = scalars[4];\r\n        val = verifyInternal(input, rangeProof);\r\n        return val;\r\n    }*/\r\n    function Verify(\r\n        uint[2] memory commitment,\r\n        uint[29] memory proof\r\n        )\r\n       public\r\n    returns (bool) {\r\n        RangeProof memory rangeProof;\r\n        alt_bn128.G1Point memory input = alt_bn128.G1Point(commitment[0], commitment[1]);\r\n        rangeProof.A = alt_bn128.G1Point(proof[0], proof[1]);\r\n        rangeProof.S = alt_bn128.G1Point(proof[2], proof[3]);\r\n        rangeProof.commits = [alt_bn128.G1Point(proof[4], proof[5]), alt_bn128.G1Point(proof[6], proof[7])];\r\n        rangeProof.tauX = proof[8];\r\n        rangeProof.mu = proof[9];\r\n        rangeProof.t = proof[10];\r\n        InnerProductProof memory ipProof;\r\n        rangeProof.ipProof = ipProof;\r\n        ipProof.ls = [proof[13],proof[14],proof[15],proof[16],proof[17],proof[18],proof[19],proof[20]];\r\n        ipProof.rs = [proof[21],proof[22],proof[23],proof[24],proof[25],proof[26],proof[27],proof[28]];\r\n        ipProof.a = proof[11];\r\n        ipProof.b = proof[12];\r\n        val = verifyInternal(input, rangeProof);\r\n        return val;\r\n    }\r\n\r\n    struct RangeProof {\r\n        alt_bn128.G1Point A;\r\n        alt_bn128.G1Point S;\r\n        alt_bn128.G1Point[2] commits;\r\n        uint256 tauX;\r\n        uint256 mu;\r\n        uint256 t;\r\n        InnerProductProof ipProof;\r\n    }\r\n\r\n    struct InnerProductProof {\r\n        uint256[2*n] ls;\r\n        uint256[2*n] rs;\r\n        uint256 a;\r\n        uint256 b;\r\n    }\r\n    struct Board {\r\n        uint256 y;\r\n        uint256[m] ys;\r\n        uint256 z;\r\n        uint256 zSquared;\r\n        uint256 zCubed;\r\n        uint256[m] twoTimesZSquared;\r\n        uint256 x;\r\n        alt_bn128.G1Point lhs;\r\n        uint256 k;\r\n        alt_bn128.G1Point rhs;\r\n        uint256 uChallenge;\r\n        alt_bn128.G1Point u;\r\n        alt_bn128.G1Point P;\r\n    }\r\n\r\n    function verifyInternal(alt_bn128.G1Point memory input, RangeProof memory proof) internal view returns (bool) {\r\n        alt_bn128.G1Point memory G = publicParameters.G();\r\n        alt_bn128.G1Point memory H = publicParameters.H();\r\n        alt_bn128.G1Point[m] memory gs = publicParameters.gs();\r\n        alt_bn128.G1Point[m] memory hs = publicParameters.hs();\r\n        Board memory b;\r\n        b.y = uint256(keccak256(abi.encodePacked(input.X, input.Y, proof.A.X, proof.A.Y, proof.S.X, proof.S.Y))).mod();\r\n        b.ys = powers(b.y);\r\n        b.z = uint256(keccak256(abi.encodePacked(b.y))).mod();\r\n        b.zSquared = b.z.mul(b.z);\r\n        b.zCubed = b.zSquared.mul(b.z);\r\n        b.twoTimesZSquared = times(powers(2), b.zSquared);\r\n        b.x = uint256(keccak256(abi.encodePacked(proof.commits[0].X, proof.commits[0].Y, proof.commits[1].X, proof.commits[1].Y))).mod();\r\n        b.lhs = G.mul(proof.t).add(H.mul(proof.tauX));\r\n        b.k = sumScalars(b.ys).mul(b.z.sub(b.zSquared)).sub(b.zCubed.mul(2 ** m).sub(b.zCubed));\r\n        b.rhs = proof.commits[0].mul(b.x).add(proof.commits[1].mul(b.x.mul(b.x)));\r\n        b.rhs = b.rhs.add(input.mul(b.zSquared));\r\n        b.rhs = b.rhs.add(G.mul(b.k));\r\n        if (!b.rhs.eq(b.lhs)) {\r\n            return false;\r\n        }\r\n        b.uChallenge = uint256(keccak256(abi.encodePacked(proof.tauX, proof.mu, proof.t))).mod();\r\n        b.u = G.mul(b.uChallenge);\r\n        alt_bn128.G1Point[m] memory hPrimes = haddamard(hs, powers(b.y.inv())); // the most expensive, roughly 64*40000 gas\r\n        uint256[m] memory hExp = addVectors(times(b.ys, b.z), b.twoTimesZSquared);\r\n        b.P = proof.A.add(proof.S.mul(b.x));\r\n        b.P = b.P.add(sumPoints(gs).mul(b.z.neg()));\r\n        b.P = b.P.add(commit(hPrimes, hExp)); // the most expensive, 64*40000\r\n        b.P = b.P.add(H.mul(proof.mu).neg());\r\n        b.P = b.P.add(b.u.mul(proof.t));\r\n        return ipVerifier.verifyWithCustomParams(b.P, proof.ipProof.ls, proof.ipProof.rs, proof.ipProof.a, proof.ipProof.b, gs, hPrimes, b.u);\r\n    }\r\n\r\n    function addVectors(uint256[m] memory a, uint256[m] memory b) internal pure returns (uint256[m] memory result) {\r\n        for (uint256 i = 0; i < m; i++) {\r\n            result[i] = a[i].add(b[i]);\r\n        }\r\n    }\r\n\r\n    function haddamard(alt_bn128.G1Point[m] memory ps, uint256[m] memory ss) internal view returns (alt_bn128.G1Point[m] memory result) {\r\n        for (uint256 i = 0; i < m; i++) {\r\n            result[i] = ps[i].mul(ss[i]);\r\n        }\r\n    }\r\n\r\n    function sumScalars(uint256[m] memory ys) internal pure returns (uint256 result) {\r\n        for (uint256 i = 0; i < m; i++) {\r\n            result = result.add(ys[i]);\r\n        }\r\n    }\r\n\r\n    function sumPoints(alt_bn128.G1Point[m] memory ps) internal view returns (alt_bn128.G1Point memory sum) {\r\n        sum = ps[0];\r\n        for (uint256 i = 1; i < m; i++) {\r\n            sum = sum.add(ps[i]);\r\n        }\r\n    }\r\n\r\n    function commit(alt_bn128.G1Point[m] memory ps, uint256[m] memory ss) internal view returns (alt_bn128.G1Point memory _commit) {\r\n        _commit = ps[0].mul(ss[0]);\r\n        for (uint256 i = 1; i < m; i++) {\r\n            _commit = _commit.add(ps[i].mul(ss[i]));\r\n        }\r\n    }\r\n\r\n    function powers(uint256 base) internal pure returns (uint256[m] memory _powers) {\r\n        _powers[0] = 1;\r\n        _powers[1] = base;\r\n        for (uint256 i = 2; i < m; i++) {\r\n            _powers[i] = _powers[i-1].mul(base);\r\n        }\r\n    }\r\n\r\n    function powers(uint256 base, uint256 firstPower, uint256 numberOfPowers) internal pure returns (uint256[] memory) {\r\n        uint256[] memory pwrs = new uint256[](numberOfPowers);\r\n        pwrs[0] = 1;\r\n        uint256 i = 0;\r\n        if (firstPower != 0) {\r\n            for (i = 0; i < firstPower; i++) {\r\n                pwrs[0] = pwrs[0].mul(base);\r\n            }\r\n        }\r\n        for (i = 1; i < numberOfPowers; i++) {\r\n            pwrs[i] = pwrs[i-1].mul(base);\r\n        }\r\n        return pwrs;\r\n    }\r\n\r\n    function times(uint256[m] memory v, uint256 x) internal pure returns (uint256[m] memory result) {\r\n        for (uint256 i = 0; i < m; i++) {\r\n            result[i] = v[i].mul(x);\r\n        }\r\n    }\r\n}\r\n",
  "sourcePath": "/media/hisham/Data/Coding/PeriodicAuction/contracts/RangeProofVerifier.sol",
  "compiler": {
    "name": "solc",
    "version": "0.5.12+commit.7709ece9.Emscripten.clang"
  },
  "schemaVersion": "3.0.20",
  "updatedAt": "2019-12-30T21:30:25.812Z",
  "devdoc": {
    "methods": {}
  },
  "userdoc": {
    "methods": {}
  }
}